{"contracts/votingSystem.sol":{"VotingFactory":{"abi":[{"inputs":[{"internalType":"address","name":"_admin","type":"address"}],"stateMutability":"nonpayable","type":"constructor"},{"inputs":[],"name":"AlreadyVoted","type":"error"},{"inputs":[],"name":"InvalidCandidate","type":"error"},{"inputs":[],"name":"InvalidElection","type":"error"},{"inputs":[],"name":"NotActive","type":"error"},{"inputs":[],"name":"OnlyAdmin","type":"error"},{"inputs":[],"name":"VotingClosed","type":"error"},{"anonymous":false,"inputs":[{"indexed":true,"internalType":"uint256","name":"id","type":"uint256"},{"indexed":false,"internalType":"string","name":"title","type":"string"},{"indexed":false,"internalType":"string[]","name":"candidates","type":"string[]"},{"indexed":false,"internalType":"bool","name":"revealDuringVoting","type":"bool"}],"name":"ElectionCreated","type":"event"},{"anonymous":false,"inputs":[{"indexed":true,"internalType":"uint256","name":"id","type":"uint256"}],"name":"ElectionEnded","type":"event"},{"anonymous":false,"inputs":[{"indexed":true,"internalType":"uint256","name":"id","type":"uint256"}],"name":"ElectionPaused","type":"event"},{"anonymous":false,"inputs":[{"indexed":true,"internalType":"uint256","name":"id","type":"uint256"},{"indexed":false,"internalType":"uint256","name":"start","type":"uint256"},{"indexed":false,"internalType":"uint256","name":"end","type":"uint256"}],"name":"ElectionStarted","type":"event"},{"anonymous":false,"inputs":[{"indexed":true,"internalType":"uint256","name":"id","type":"uint256"},{"indexed":true,"internalType":"address","name":"voter","type":"address"},{"indexed":false,"internalType":"uint256","name":"candidate","type":"uint256"}],"name":"VoteCast","type":"event"},{"inputs":[],"name":"admin","outputs":[{"internalType":"address","name":"","type":"address"}],"stateMutability":"view","type":"function"},{"inputs":[{"internalType":"string","name":"title","type":"string"},{"internalType":"string[]","name":"candidateNames","type":"string[]"},{"internalType":"bool","name":"revealDuringVoting","type":"bool"}],"name":"createElection","outputs":[{"internalType":"uint256","name":"id","type":"uint256"}],"stateMutability":"nonpayable","type":"function"},{"inputs":[],"name":"electionCount","outputs":[{"internalType":"uint256","name":"","type":"uint256"}],"stateMutability":"view","type":"function"},{"inputs":[{"internalType":"uint256","name":"id","type":"uint256"}],"name":"endElection","outputs":[],"stateMutability":"nonpayable","type":"function"},{"inputs":[{"internalType":"uint256","name":"id","type":"uint256"}],"name":"getCandidates","outputs":[{"internalType":"string[]","name":"","type":"string[]"}],"stateMutability":"view","type":"function"},{"inputs":[{"internalType":"uint256","name":"id","type":"uint256"}],"name":"getElectionMeta","outputs":[{"internalType":"string","name":"title","type":"string"},{"internalType":"uint64","name":"start","type":"uint64"},{"internalType":"uint64","name":"end","type":"uint64"},{"internalType":"bool","name":"active","type":"bool"},{"internalType":"bool","name":"ended","type":"bool"},{"internalType":"bool","name":"revealDuringVoting","type":"bool"}],"stateMutability":"view","type":"function"},{"inputs":[{"internalType":"uint256","name":"id","type":"uint256"}],"name":"getTallies","outputs":[{"internalType":"uint256[]","name":"","type":"uint256[]"}],"stateMutability":"view","type":"function"},{"inputs":[{"internalType":"uint256","name":"id","type":"uint256"}],"name":"getWinner","outputs":[{"internalType":"uint256","name":"winnerId","type":"uint256"}],"stateMutability":"view","type":"function"},{"inputs":[{"internalType":"uint256","name":"id","type":"uint256"},{"internalType":"address","name":"voter","type":"address"}],"name":"hasVoted","outputs":[{"internalType":"bool","name":"","type":"bool"}],"stateMutability":"view","type":"function"},{"inputs":[{"internalType":"uint256","name":"id","type":"uint256"}],"name":"pauseElection","outputs":[],"stateMutability":"nonpayable","type":"function"},{"inputs":[{"internalType":"uint256","name":"id","type":"uint256"},{"internalType":"uint64","name":"start","type":"uint64"},{"internalType":"uint64","name":"end","type":"uint64"}],"name":"startElection","outputs":[],"stateMutability":"nonpayable","type":"function"},{"inputs":[{"internalType":"uint256","name":"id","type":"uint256"},{"internalType":"uint256","name":"candidateId","type":"uint256"}],"name":"vote","outputs":[],"stateMutability":"nonpayable","type":"function"}],"evm":{"bytecode":{"linkReferences":{},"object":"60806040523480156200001157600080fd5b506040516200216a3803806200216a833981810160405281019062000037919062000125565b600073ffffffffffffffffffffffffffffffffffffffff168173ffffffffffffffffffffffffffffffffffffffff161462000073578062000075565b335b6000806101000a81548173ffffffffffffffffffffffffffffffffffffffff021916908373ffffffffffffffffffffffffffffffffffffffff1602179055505062000157565b600080fd5b600073ffffffffffffffffffffffffffffffffffffffff82169050919050565b6000620000ed82620000c0565b9050919050565b620000ff81620000e0565b81146200010b57600080fd5b50565b6000815190506200011f81620000f4565b92915050565b6000602082840312156200013e576200013d620000bb565b5b60006200014e848285016200010e565b91505092915050565b61200380620001676000396000f3fe608060405234801561001057600080fd5b50600436106100b45760003560e01c8063997d283011610071578063997d2830146101c55780639c98bcbb146101e3578063b384abef146101ff578063ed950a5a1461021b578063ed9cccb414610250578063f851a4401461026c576100b4565b80632e4ecae1146100b957806339f69bcf146100d55780633e39a7a5146101055780634129b2c91461013557806343859632146101655780636ce0a9e014610195575b600080fd5b6100d360048036038101906100ce919061128f565b61028a565b005b6100ef60048036038101906100ea9190611520565b6103ab565b6040516100fc91906115ba565b60405180910390f35b61011f600480360381019061011a919061128f565b610595565b60405161012c9190611716565b60405180910390f35b61014f600480360381019061014a919061128f565b6106c1565b60405161015c91906115ba565b60405180910390f35b61017f600480360381019061017a9190611796565b610798565b60405161018c91906117e5565b60405180910390f35b6101af60048036038101906101aa919061128f565b610840565b6040516101bc91906118be565b60405180910390f35b6101cd61097d565b6040516101da91906115ba565b60405180910390f35b6101fd60048036038101906101f8919061128f565b610983565b005b610219600480360381019061021491906118e0565b610ac7565b005b6102356004803603810190610230919061128f565b610d97565b6040516102479695949392919061198d565b60405180910390f35b61026a60048036038101906102659190611a21565b610f03565b005b6102746110fa565b6040516102819190611a83565b60405180910390f35b60008054906101000a900473ffffffffffffffffffffffffffffffffffffffff1673ffffffffffffffffffffffffffffffffffffffff163373ffffffffffffffffffffffffffffffffffffffff161461030f576040517f4755657900000000000000000000000000000000000000000000000000000000815260040160405180910390fd5b80600154811061034b576040517fcd9f14e100000000000000000000000000000000000000000000000000000000815260040160405180910390fd5b60006002600084815260200190815260200160002060030160106101000a81548160ff021916908315150217905550817f4863718bd88bf735b6d3ec0c730a749b6f6d42bcdee818ed570aa2656411388160405160405180910390a25050565b60008060009054906101000a900473ffffffffffffffffffffffffffffffffffffffff1673ffffffffffffffffffffffffffffffffffffffff163373ffffffffffffffffffffffffffffffffffffffff1614610433576040517f4755657900000000000000000000000000000000000000000000000000000000815260040160405180910390fd5b600283511015610478576040517f08c379a000000000000000000000000000000000000000000000000000000000815260040161046f90611aea565b60405180910390fd5b6001600081548092919061048b90611b39565b9190505590506000600260008381526020019081526020016000209050848160000190816104b99190611d8d565b50838160010190805190602001906104d292919061111e565b50835167ffffffffffffffff8111156104ee576104ed6112d7565b5b60405190808252806020026020018201604052801561051c5781602001602082028036833780820191505090505b50816002019080519060200190610534929190611177565b50828160030160126101000a81548160ff021916908315150217905550817ffa6704555aa20cf47157175dc0332c4099c4006eb8708e2458b372718e10289f86868660405161058593929190611e5f565b60405180910390a2509392505050565b60608160015481106105d3576040517fcd9f14e100000000000000000000000000000000000000000000000000000000815260040160405180910390fd5b60026000848152602001908152602001600020600101805480602002602001604051908101604052809291908181526020016000905b828210156106b557838290600052602060002001805461062890611bb0565b80601f016020809104026020016040519081016040528092919081815260200182805461065490611bb0565b80156106a15780601f10610676576101008083540402835291602001916106a1565b820191906000526020600020905b81548152906001019060200180831161068457829003601f168201915b505050505081526020019060010190610609565b50505050915050919050565b60008160015481106106ff576040517fcd9f14e100000000000000000000000000000000000000000000000000000000815260040160405180910390fd5b6000600260008581526020019081526020016000209050600080935060005b826002018054905081101561078f578183600201828154811061074457610743611ea4565b5b9060005260206000200154111561077c5782600201818154811061076b5761076a611ea4565b5b906000526020600020015491508094505b808061078790611b39565b91505061071e565b50505050919050565b60008260015481106107d6576040517fcd9f14e100000000000000000000000000000000000000000000000000000000815260040160405180910390fd5b6002600085815260200190815260200160002060040160008473ffffffffffffffffffffffffffffffffffffffff1673ffffffffffffffffffffffffffffffffffffffff16815260200190815260200160002060009054906101000a900460ff1691505092915050565b606081600154811061087e576040517fcd9f14e100000000000000000000000000000000000000000000000000000000815260040160405180910390fd5b60006002600085815260200190815260200160002090508060030160129054906101000a900460ff161580156108c357508060030160119054906101000a900460ff16155b1561092057806001018054905067ffffffffffffffff8111156108e9576108e86112d7565b5b6040519080825280602002602001820160405280156109175781602001602082028036833780820191505090505b50925050610977565b8060020180548060200260200160405190810160405280929190818152602001828054801561096e57602002820191906000526020600020905b81548152602001906001019080831161095a575b50505050509250505b50919050565b60015481565b60008054906101000a900473ffffffffffffffffffffffffffffffffffffffff1673ffffffffffffffffffffffffffffffffffffffff163373ffffffffffffffffffffffffffffffffffffffff1614610a08576040517f4755657900000000000000000000000000000000000000000000000000000000815260040160405180910390fd5b806001548110610a44576040517fcd9f14e100000000000000000000000000000000000000000000000000000000815260040160405180910390fd5b600060026000848152602001908152602001600020905060008160030160106101000a81548160ff02191690831515021790555060018160030160116101000a81548160ff021916908315150217905550827f562cd572b2ba3b666cd989fc4ca98419ec81e75f04528df9d9d76fdb7807ee7160405160405180910390a2505050565b816001548110610b03576040517fcd9f14e100000000000000000000000000000000000000000000000000000000815260040160405180910390fd5b60006002600085815260200190815260200160002090508060030160109054906101000a900460ff16610b62576040517f80cb55e200000000000000000000000000000000000000000000000000000000815260040160405180910390fd5b8060030160009054906101000a900467ffffffffffffffff1667ffffffffffffffff16421080610bb357508060030160089054906101000a900467ffffffffffffffff1667ffffffffffffffff1642115b15610bea576040517f66b6cb4a00000000000000000000000000000000000000000000000000000000815260040160405180910390fd5b80600101805490508310610c2a576040517fe66ea08f00000000000000000000000000000000000000000000000000000000815260040160405180910390fd5b8060040160003373ffffffffffffffffffffffffffffffffffffffff1673ffffffffffffffffffffffffffffffffffffffff16815260200190815260200160002060009054906101000a900460ff1615610cb0576040517f7c9a1cf900000000000000000000000000000000000000000000000000000000815260040160405180910390fd5b6001816002018481548110610cc857610cc7611ea4565b5b906000526020600020016000828254610ce19190611ed3565b9250508190555060018160040160003373ffffffffffffffffffffffffffffffffffffffff1673ffffffffffffffffffffffffffffffffffffffff16815260200190815260200160002060006101000a81548160ff0219169083151502179055503373ffffffffffffffffffffffffffffffffffffffff16847f2acce567deca3aabf56327adbb4524bd5318936eaefa69e3a5208ffda0cfec0985604051610d8991906115ba565b60405180910390a350505050565b60606000806000806000866001548110610ddd576040517fcd9f14e100000000000000000000000000000000000000000000000000000000815260040160405180910390fd5b6000600260008a81526020019081526020016000209050806000018160030160009054906101000a900467ffffffffffffffff168260030160089054906101000a900467ffffffffffffffff168360030160109054906101000a900460ff168460030160119054906101000a900460ff168560030160129054906101000a900460ff16858054610e6c90611bb0565b80601f0160208091040260200160405190810160405280929190818152602001828054610e9890611bb0565b8015610ee55780601f10610eba57610100808354040283529160200191610ee5565b820191906000526020600020905b815481529060010190602001808311610ec857829003601f168201915b50505050509550975097509750975097509750505091939550919395565b60008054906101000a900473ffffffffffffffffffffffffffffffffffffffff1673ffffffffffffffffffffffffffffffffffffffff163373ffffffffffffffffffffffffffffffffffffffff1614610f88576040517f4755657900000000000000000000000000000000000000000000000000000000815260040160405180910390fd5b826001548110610fc4576040517fcd9f14e100000000000000000000000000000000000000000000000000000000815260040160405180910390fd5b8267ffffffffffffffff168267ffffffffffffffff16118015610ff05750428267ffffffffffffffff16115b61102f576040517f08c379a000000000000000000000000000000000000000000000000000000000815260040161102690611f53565b60405180910390fd5b6000600260008681526020019081526020016000209050838160030160006101000a81548167ffffffffffffffff021916908367ffffffffffffffff160217905550828160030160086101000a81548167ffffffffffffffff021916908367ffffffffffffffff16021790555060018160030160106101000a81548160ff021916908315150217905550847f05c86f625f5abd1385c78f66fa5cae221087d7ef4e0a8b37efdfd0592c85a75985856040516110eb929190611fa4565b60405180910390a25050505050565b60008054906101000a900473ffffffffffffffffffffffffffffffffffffffff1681565b828054828255906000526020600020908101928215611166579160200282015b828111156111655782518290816111559190611d8d565b509160200191906001019061113e565b5b50905061117391906111c4565b5090565b8280548282559060005260206000209081019282156111b3579160200282015b828111156111b2578251825591602001919060010190611197565b5b5090506111c091906111e8565b5090565b5b808211156111e457600081816111db9190611205565b506001016111c5565b5090565b5b808211156112015760008160009055506001016111e9565b5090565b50805461121190611bb0565b6000825580601f106112235750611242565b601f01602090049060005260206000209081019061124191906111e8565b5b50565b6000604051905090565b600080fd5b600080fd5b6000819050919050565b61126c81611259565b811461127757600080fd5b50565b60008135905061128981611263565b92915050565b6000602082840312156112a5576112a461124f565b5b60006112b38482850161127a565b91505092915050565b600080fd5b600080fd5b6000601f19601f8301169050919050565b7f4e487b7100000000000000000000000000000000000000000000000000000000600052604160045260246000fd5b61130f826112c6565b810181811067ffffffffffffffff8211171561132e5761132d6112d7565b5b80604052505050565b6000611341611245565b905061134d8282611306565b919050565b600067ffffffffffffffff82111561136d5761136c6112d7565b5b611376826112c6565b9050602081019050919050565b82818337600083830152505050565b60006113a56113a084611352565b611337565b9050828152602081018484840111156113c1576113c06112c1565b5b6113cc848285611383565b509392505050565b600082601f8301126113e9576113e86112bc565b5b81356113f9848260208601611392565b91505092915050565b600067ffffffffffffffff82111561141d5761141c6112d7565b5b602082029050602081019050919050565b600080fd5b600061144661144184611402565b611337565b905080838252602082019050602084028301858111156114695761146861142e565b5b835b818110156114b057803567ffffffffffffffff81111561148e5761148d6112bc565b5b80860161149b89826113d4565b8552602085019450505060208101905061146b565b5050509392505050565b600082601f8301126114cf576114ce6112bc565b5b81356114df848260208601611433565b91505092915050565b60008115159050919050565b6114fd816114e8565b811461150857600080fd5b50565b60008135905061151a816114f4565b92915050565b6000806000606084860312156115395761153861124f565b5b600084013567ffffffffffffffff81111561155757611556611254565b5b611563868287016113d4565b935050602084013567ffffffffffffffff81111561158457611583611254565b5b611590868287016114ba565b92505060406115a18682870161150b565b9150509250925092565b6115b481611259565b82525050565b60006020820190506115cf60008301846115ab565b92915050565b600081519050919050565b600082825260208201905092915050565b6000819050602082019050919050565b600081519050919050565b600082825260208201905092915050565b60005b8381101561163b578082015181840152602081019050611620565b60008484015250505050565b600061165282611601565b61165c818561160c565b935061166c81856020860161161d565b611675816112c6565b840191505092915050565b600061168c8383611647565b905092915050565b6000602082019050919050565b60006116ac826115d5565b6116b681856115e0565b9350836020820285016116c8856115f1565b8060005b8581101561170457848403895281516116e58582611680565b94506116f083611694565b925060208a019950506001810190506116cc565b50829750879550505050505092915050565b6000602082019050818103600083015261173081846116a1565b905092915050565b600073ffffffffffffffffffffffffffffffffffffffff82169050919050565b600061176382611738565b9050919050565b61177381611758565b811461177e57600080fd5b50565b6000813590506117908161176a565b92915050565b600080604083850312156117ad576117ac61124f565b5b60006117bb8582860161127a565b92505060206117cc85828601611781565b9150509250929050565b6117df816114e8565b82525050565b60006020820190506117fa60008301846117d6565b92915050565b600081519050919050565b600082825260208201905092915050565b6000819050602082019050919050565b61183581611259565b82525050565b6000611847838361182c565b60208301905092915050565b6000602082019050919050565b600061186b82611800565b611875818561180b565b93506118808361181c565b8060005b838110156118b1578151611898888261183b565b97506118a383611853565b925050600181019050611884565b5085935050505092915050565b600060208201905081810360008301526118d88184611860565b905092915050565b600080604083850312156118f7576118f661124f565b5b60006119058582860161127a565b92505060206119168582860161127a565b9150509250929050565b600082825260208201905092915050565b600061193c82611601565b6119468185611920565b935061195681856020860161161d565b61195f816112c6565b840191505092915050565b600067ffffffffffffffff82169050919050565b6119878161196a565b82525050565b600060c08201905081810360008301526119a78189611931565b90506119b6602083018861197e565b6119c3604083018761197e565b6119d060608301866117d6565b6119dd60808301856117d6565b6119ea60a08301846117d6565b979650505050505050565b6119fe8161196a565b8114611a0957600080fd5b50565b600081359050611a1b816119f5565b92915050565b600080600060608486031215611a3a57611a3961124f565b5b6000611a488682870161127a565b9350506020611a5986828701611a0c565b9250506040611a6a86828701611a0c565b9150509250925092565b611a7d81611758565b82525050565b6000602082019050611a986000830184611a74565b92915050565b7f4e656564203e3d20322063616e64696461746573000000000000000000000000600082015250565b6000611ad4601483611920565b9150611adf82611a9e565b602082019050919050565b60006020820190508181036000830152611b0381611ac7565b9050919050565b7f4e487b7100000000000000000000000000000000000000000000000000000000600052601160045260246000fd5b6000611b4482611259565b91507fffffffffffffffffffffffffffffffffffffffffffffffffffffffffffffffff8203611b7657611b75611b0a565b5b600182019050919050565b7f4e487b7100000000000000000000000000000000000000000000000000000000600052602260045260246000fd5b60006002820490506001821680611bc857607f821691505b602082108103611bdb57611bda611b81565b5b50919050565b60008190508160005260206000209050919050565b60006020601f8301049050919050565b600082821b905092915050565b600060088302611c437fffffffffffffffffffffffffffffffffffffffffffffffffffffffffffffffff82611c06565b611c4d8683611c06565b95508019841693508086168417925050509392505050565b6000819050919050565b6000611c8a611c85611c8084611259565b611c65565b611259565b9050919050565b6000819050919050565b611ca483611c6f565b611cb8611cb082611c91565b848454611c13565b825550505050565b600090565b611ccd611cc0565b611cd8818484611c9b565b505050565b5b81811015611cfc57611cf1600082611cc5565b600181019050611cde565b5050565b601f821115611d4157611d1281611be1565b611d1b84611bf6565b81016020851015611d2a578190505b611d3e611d3685611bf6565b830182611cdd565b50505b505050565b600082821c905092915050565b6000611d6460001984600802611d46565b1980831691505092915050565b6000611d7d8383611d53565b9150826002028217905092915050565b611d9682611601565b67ffffffffffffffff811115611daf57611dae6112d7565b5b611db98254611bb0565b611dc4828285611d00565b600060209050601f831160018114611df75760008415611de5578287015190505b611def8582611d71565b865550611e57565b601f198416611e0586611be1565b60005b82811015611e2d57848901518255600182019150602085019450602081019050611e08565b86831015611e4a5784890151611e46601f891682611d53565b8355505b6001600288020188555050505b505050505050565b60006060820190508181036000830152611e798186611931565b90508181036020830152611e8d81856116a1565b9050611e9c60408301846117d6565b949350505050565b7f4e487b7100000000000000000000000000000000000000000000000000000000600052603260045260246000fd5b6000611ede82611259565b9150611ee983611259565b9250828201905080821115611f0157611f00611b0a565b5b92915050565b7f4261642077696e646f7700000000000000000000000000000000000000000000600082015250565b6000611f3d600a83611920565b9150611f4882611f07565b602082019050919050565b60006020820190508181036000830152611f6c81611f30565b9050919050565b6000611f8e611f89611f848461196a565b611c65565b611259565b9050919050565b611f9e81611f73565b82525050565b6000604082019050611fb96000830185611f95565b611fc66020830184611f95565b939250505056fea264697066735822122088f883aa361ae105d9a2fa195aabcd875bcfe21453d79543d828f2ae57107ecb64736f6c63430008140033","opcodes":"PUSH1 0x80 PUSH1 0x40 MSTORE CALLVALUE DUP1 ISZERO PUSH3 0x11 JUMPI PUSH1 0x0 DUP1 REVERT JUMPDEST POP PUSH1 0x40 MLOAD PUSH3 0x216A CODESIZE SUB DUP1 PUSH3 0x216A DUP4 CODECOPY DUP2 DUP2 ADD PUSH1 0x40 MSTORE DUP2 ADD SWAP1 PUSH3 0x37 SWAP2 SWAP1 PUSH3 0x125 JUMP JUMPDEST PUSH1 0x0 PUSH20 0xFFFFFFFFFFFFFFFFFFFFFFFFFFFFFFFFFFFFFFFF AND DUP2 PUSH20 0xFFFFFFFFFFFFFFFFFFFFFFFFFFFFFFFFFFFFFFFF AND EQ PUSH3 0x73 JUMPI DUP1 PUSH3 0x75 JUMP JUMPDEST CALLER JUMPDEST PUSH1 0x0 DUP1 PUSH2 0x100 EXP DUP2 SLOAD DUP2 PUSH20 0xFFFFFFFFFFFFFFFFFFFFFFFFFFFFFFFFFFFFFFFF MUL NOT AND SWAP1 DUP4 PUSH20 0xFFFFFFFFFFFFFFFFFFFFFFFFFFFFFFFFFFFFFFFF AND MUL OR SWAP1 SSTORE POP POP PUSH3 0x157 JUMP JUMPDEST PUSH1 0x0 DUP1 REVERT JUMPDEST PUSH1 0x0 PUSH20 0xFFFFFFFFFFFFFFFFFFFFFFFFFFFFFFFFFFFFFFFF DUP3 AND SWAP1 POP SWAP2 SWAP1 POP JUMP JUMPDEST PUSH1 0x0 PUSH3 0xED DUP3 PUSH3 0xC0 JUMP JUMPDEST SWAP1 POP SWAP2 SWAP1 POP JUMP JUMPDEST PUSH3 0xFF DUP2 PUSH3 0xE0 JUMP JUMPDEST DUP2 EQ PUSH3 0x10B JUMPI PUSH1 0x0 DUP1 REVERT JUMPDEST POP JUMP JUMPDEST PUSH1 0x0 DUP2 MLOAD SWAP1 POP PUSH3 0x11F DUP2 PUSH3 0xF4 JUMP JUMPDEST SWAP3 SWAP2 POP POP JUMP JUMPDEST PUSH1 0x0 PUSH1 0x20 DUP3 DUP5 SUB SLT ISZERO PUSH3 0x13E JUMPI PUSH3 0x13D PUSH3 0xBB JUMP JUMPDEST JUMPDEST PUSH1 0x0 PUSH3 0x14E DUP5 DUP3 DUP6 ADD PUSH3 0x10E JUMP JUMPDEST SWAP2 POP POP SWAP3 SWAP2 POP POP JUMP JUMPDEST PUSH2 0x2003 DUP1 PUSH3 0x167 PUSH1 0x0 CODECOPY PUSH1 0x0 RETURN INVALID PUSH1 0x80 PUSH1 0x40 MSTORE CALLVALUE DUP1 ISZERO PUSH2 0x10 JUMPI PUSH1 0x0 DUP1 REVERT JUMPDEST POP PUSH1 0x4 CALLDATASIZE LT PUSH2 0xB4 JUMPI PUSH1 0x0 CALLDATALOAD PUSH1 0xE0 SHR DUP1 PUSH4 0x997D2830 GT PUSH2 0x71 JUMPI DUP1 PUSH4 0x997D2830 EQ PUSH2 0x1C5 JUMPI DUP1 PUSH4 0x9C98BCBB EQ PUSH2 0x1E3 JUMPI DUP1 PUSH4 0xB384ABEF EQ PUSH2 0x1FF JUMPI DUP1 PUSH4 0xED950A5A EQ PUSH2 0x21B JUMPI DUP1 PUSH4 0xED9CCCB4 EQ PUSH2 0x250 JUMPI DUP1 PUSH4 0xF851A440 EQ PUSH2 0x26C JUMPI PUSH2 0xB4 JUMP JUMPDEST DUP1 PUSH4 0x2E4ECAE1 EQ PUSH2 0xB9 JUMPI DUP1 PUSH4 0x39F69BCF EQ PUSH2 0xD5 JUMPI DUP1 PUSH4 0x3E39A7A5 EQ PUSH2 0x105 JUMPI DUP1 PUSH4 0x4129B2C9 EQ PUSH2 0x135 JUMPI DUP1 PUSH4 0x43859632 EQ PUSH2 0x165 JUMPI DUP1 PUSH4 0x6CE0A9E0 EQ PUSH2 0x195 JUMPI JUMPDEST PUSH1 0x0 DUP1 REVERT JUMPDEST PUSH2 0xD3 PUSH1 0x4 DUP1 CALLDATASIZE SUB DUP2 ADD SWAP1 PUSH2 0xCE SWAP2 SWAP1 PUSH2 0x128F JUMP JUMPDEST PUSH2 0x28A JUMP JUMPDEST STOP JUMPDEST PUSH2 0xEF PUSH1 0x4 DUP1 CALLDATASIZE SUB DUP2 ADD SWAP1 PUSH2 0xEA SWAP2 SWAP1 PUSH2 0x1520 JUMP JUMPDEST PUSH2 0x3AB JUMP JUMPDEST PUSH1 0x40 MLOAD PUSH2 0xFC SWAP2 SWAP1 PUSH2 0x15BA JUMP JUMPDEST PUSH1 0x40 MLOAD DUP1 SWAP2 SUB SWAP1 RETURN JUMPDEST PUSH2 0x11F PUSH1 0x4 DUP1 CALLDATASIZE SUB DUP2 ADD SWAP1 PUSH2 0x11A SWAP2 SWAP1 PUSH2 0x128F JUMP JUMPDEST PUSH2 0x595 JUMP JUMPDEST PUSH1 0x40 MLOAD PUSH2 0x12C SWAP2 SWAP1 PUSH2 0x1716 JUMP JUMPDEST PUSH1 0x40 MLOAD DUP1 SWAP2 SUB SWAP1 RETURN JUMPDEST PUSH2 0x14F PUSH1 0x4 DUP1 CALLDATASIZE SUB DUP2 ADD SWAP1 PUSH2 0x14A SWAP2 SWAP1 PUSH2 0x128F JUMP JUMPDEST PUSH2 0x6C1 JUMP JUMPDEST PUSH1 0x40 MLOAD PUSH2 0x15C SWAP2 SWAP1 PUSH2 0x15BA JUMP JUMPDEST PUSH1 0x40 MLOAD DUP1 SWAP2 SUB SWAP1 RETURN JUMPDEST PUSH2 0x17F PUSH1 0x4 DUP1 CALLDATASIZE SUB DUP2 ADD SWAP1 PUSH2 0x17A SWAP2 SWAP1 PUSH2 0x1796 JUMP JUMPDEST PUSH2 0x798 JUMP JUMPDEST PUSH1 0x40 MLOAD PUSH2 0x18C SWAP2 SWAP1 PUSH2 0x17E5 JUMP JUMPDEST PUSH1 0x40 MLOAD DUP1 SWAP2 SUB SWAP1 RETURN JUMPDEST PUSH2 0x1AF PUSH1 0x4 DUP1 CALLDATASIZE SUB DUP2 ADD SWAP1 PUSH2 0x1AA SWAP2 SWAP1 PUSH2 0x128F JUMP JUMPDEST PUSH2 0x840 JUMP JUMPDEST PUSH1 0x40 MLOAD PUSH2 0x1BC SWAP2 SWAP1 PUSH2 0x18BE JUMP JUMPDEST PUSH1 0x40 MLOAD DUP1 SWAP2 SUB SWAP1 RETURN JUMPDEST PUSH2 0x1CD PUSH2 0x97D JUMP JUMPDEST PUSH1 0x40 MLOAD PUSH2 0x1DA SWAP2 SWAP1 PUSH2 0x15BA JUMP JUMPDEST PUSH1 0x40 MLOAD DUP1 SWAP2 SUB SWAP1 RETURN JUMPDEST PUSH2 0x1FD PUSH1 0x4 DUP1 CALLDATASIZE SUB DUP2 ADD SWAP1 PUSH2 0x1F8 SWAP2 SWAP1 PUSH2 0x128F JUMP JUMPDEST PUSH2 0x983 JUMP JUMPDEST STOP JUMPDEST PUSH2 0x219 PUSH1 0x4 DUP1 CALLDATASIZE SUB DUP2 ADD SWAP1 PUSH2 0x214 SWAP2 SWAP1 PUSH2 0x18E0 JUMP JUMPDEST PUSH2 0xAC7 JUMP JUMPDEST STOP JUMPDEST PUSH2 0x235 PUSH1 0x4 DUP1 CALLDATASIZE SUB DUP2 ADD SWAP1 PUSH2 0x230 SWAP2 SWAP1 PUSH2 0x128F JUMP JUMPDEST PUSH2 0xD97 JUMP JUMPDEST PUSH1 0x40 MLOAD PUSH2 0x247 SWAP7 SWAP6 SWAP5 SWAP4 SWAP3 SWAP2 SWAP1 PUSH2 0x198D JUMP JUMPDEST PUSH1 0x40 MLOAD DUP1 SWAP2 SUB SWAP1 RETURN JUMPDEST PUSH2 0x26A PUSH1 0x4 DUP1 CALLDATASIZE SUB DUP2 ADD SWAP1 PUSH2 0x265 SWAP2 SWAP1 PUSH2 0x1A21 JUMP JUMPDEST PUSH2 0xF03 JUMP JUMPDEST STOP JUMPDEST PUSH2 0x274 PUSH2 0x10FA JUMP JUMPDEST PUSH1 0x40 MLOAD PUSH2 0x281 SWAP2 SWAP1 PUSH2 0x1A83 JUMP JUMPDEST PUSH1 0x40 MLOAD DUP1 SWAP2 SUB SWAP1 RETURN JUMPDEST PUSH1 0x0 DUP1 SLOAD SWAP1 PUSH2 0x100 EXP SWAP1 DIV PUSH20 0xFFFFFFFFFFFFFFFFFFFFFFFFFFFFFFFFFFFFFFFF AND PUSH20 0xFFFFFFFFFFFFFFFFFFFFFFFFFFFFFFFFFFFFFFFF AND CALLER PUSH20 0xFFFFFFFFFFFFFFFFFFFFFFFFFFFFFFFFFFFFFFFF AND EQ PUSH2 0x30F JUMPI PUSH1 0x40 MLOAD PUSH32 0x4755657900000000000000000000000000000000000000000000000000000000 DUP2 MSTORE PUSH1 0x4 ADD PUSH1 0x40 MLOAD DUP1 SWAP2 SUB SWAP1 REVERT JUMPDEST DUP1 PUSH1 0x1 SLOAD DUP2 LT PUSH2 0x34B JUMPI PUSH1 0x40 MLOAD PUSH32 0xCD9F14E100000000000000000000000000000000000000000000000000000000 DUP2 MSTORE PUSH1 0x4 ADD PUSH1 0x40 MLOAD DUP1 SWAP2 SUB SWAP1 REVERT JUMPDEST PUSH1 0x0 PUSH1 0x2 PUSH1 0x0 DUP5 DUP2 MSTORE PUSH1 0x20 ADD SWAP1 DUP2 MSTORE PUSH1 0x20 ADD PUSH1 0x0 KECCAK256 PUSH1 0x3 ADD PUSH1 0x10 PUSH2 0x100 EXP DUP2 SLOAD DUP2 PUSH1 0xFF MUL NOT AND SWAP1 DUP4 ISZERO ISZERO MUL OR SWAP1 SSTORE POP DUP2 PUSH32 0x4863718BD88BF735B6D3EC0C730A749B6F6D42BCDEE818ED570AA26564113881 PUSH1 0x40 MLOAD PUSH1 0x40 MLOAD DUP1 SWAP2 SUB SWAP1 LOG2 POP POP JUMP JUMPDEST PUSH1 0x0 DUP1 PUSH1 0x0 SWAP1 SLOAD SWAP1 PUSH2 0x100 EXP SWAP1 DIV PUSH20 0xFFFFFFFFFFFFFFFFFFFFFFFFFFFFFFFFFFFFFFFF AND PUSH20 0xFFFFFFFFFFFFFFFFFFFFFFFFFFFFFFFFFFFFFFFF AND CALLER PUSH20 0xFFFFFFFFFFFFFFFFFFFFFFFFFFFFFFFFFFFFFFFF AND EQ PUSH2 0x433 JUMPI PUSH1 0x40 MLOAD PUSH32 0x4755657900000000000000000000000000000000000000000000000000000000 DUP2 MSTORE PUSH1 0x4 ADD PUSH1 0x40 MLOAD DUP1 SWAP2 SUB SWAP1 REVERT JUMPDEST PUSH1 0x2 DUP4 MLOAD LT ISZERO PUSH2 0x478 JUMPI PUSH1 0x40 MLOAD PUSH32 0x8C379A000000000000000000000000000000000000000000000000000000000 DUP2 MSTORE PUSH1 0x4 ADD PUSH2 0x46F SWAP1 PUSH2 0x1AEA JUMP JUMPDEST PUSH1 0x40 MLOAD DUP1 SWAP2 SUB SWAP1 REVERT JUMPDEST PUSH1 0x1 PUSH1 0x0 DUP2 SLOAD DUP1 SWAP3 SWAP2 SWAP1 PUSH2 0x48B SWAP1 PUSH2 0x1B39 JUMP JUMPDEST SWAP2 SWAP1 POP SSTORE SWAP1 POP PUSH1 0x0 PUSH1 0x2 PUSH1 0x0 DUP4 DUP2 MSTORE PUSH1 0x20 ADD SWAP1 DUP2 MSTORE PUSH1 0x20 ADD PUSH1 0x0 KECCAK256 SWAP1 POP DUP5 DUP2 PUSH1 0x0 ADD SWAP1 DUP2 PUSH2 0x4B9 SWAP2 SWAP1 PUSH2 0x1D8D JUMP JUMPDEST POP DUP4 DUP2 PUSH1 0x1 ADD SWAP1 DUP1 MLOAD SWAP1 PUSH1 0x20 ADD SWAP1 PUSH2 0x4D2 SWAP3 SWAP2 SWAP1 PUSH2 0x111E JUMP JUMPDEST POP DUP4 MLOAD PUSH8 0xFFFFFFFFFFFFFFFF DUP2 GT ISZERO PUSH2 0x4EE JUMPI PUSH2 0x4ED PUSH2 0x12D7 JUMP JUMPDEST JUMPDEST PUSH1 0x40 MLOAD SWAP1 DUP1 DUP3 MSTORE DUP1 PUSH1 0x20 MUL PUSH1 0x20 ADD DUP3 ADD PUSH1 0x40 MSTORE DUP1 ISZERO PUSH2 0x51C JUMPI DUP2 PUSH1 0x20 ADD PUSH1 0x20 DUP3 MUL DUP1 CALLDATASIZE DUP4 CALLDATACOPY DUP1 DUP3 ADD SWAP2 POP POP SWAP1 POP JUMPDEST POP DUP2 PUSH1 0x2 ADD SWAP1 DUP1 MLOAD SWAP1 PUSH1 0x20 ADD SWAP1 PUSH2 0x534 SWAP3 SWAP2 SWAP1 PUSH2 0x1177 JUMP JUMPDEST POP DUP3 DUP2 PUSH1 0x3 ADD PUSH1 0x12 PUSH2 0x100 EXP DUP2 SLOAD DUP2 PUSH1 0xFF MUL NOT AND SWAP1 DUP4 ISZERO ISZERO MUL OR SWAP1 SSTORE POP DUP2 PUSH32 0xFA6704555AA20CF47157175DC0332C4099C4006EB8708E2458B372718E10289F DUP7 DUP7 DUP7 PUSH1 0x40 MLOAD PUSH2 0x585 SWAP4 SWAP3 SWAP2 SWAP1 PUSH2 0x1E5F JUMP JUMPDEST PUSH1 0x40 MLOAD DUP1 SWAP2 SUB SWAP1 LOG2 POP SWAP4 SWAP3 POP POP POP JUMP JUMPDEST PUSH1 0x60 DUP2 PUSH1 0x1 SLOAD DUP2 LT PUSH2 0x5D3 JUMPI PUSH1 0x40 MLOAD PUSH32 0xCD9F14E100000000000000000000000000000000000000000000000000000000 DUP2 MSTORE PUSH1 0x4 ADD PUSH1 0x40 MLOAD DUP1 SWAP2 SUB SWAP1 REVERT JUMPDEST PUSH1 0x2 PUSH1 0x0 DUP5 DUP2 MSTORE PUSH1 0x20 ADD SWAP1 DUP2 MSTORE PUSH1 0x20 ADD PUSH1 0x0 KECCAK256 PUSH1 0x1 ADD DUP1 SLOAD DUP1 PUSH1 0x20 MUL PUSH1 0x20 ADD PUSH1 0x40 MLOAD SWAP1 DUP2 ADD PUSH1 0x40 MSTORE DUP1 SWAP3 SWAP2 SWAP1 DUP2 DUP2 MSTORE PUSH1 0x20 ADD PUSH1 0x0 SWAP1 JUMPDEST DUP3 DUP3 LT ISZERO PUSH2 0x6B5 JUMPI DUP4 DUP3 SWAP1 PUSH1 0x0 MSTORE PUSH1 0x20 PUSH1 0x0 KECCAK256 ADD DUP1 SLOAD PUSH2 0x628 SWAP1 PUSH2 0x1BB0 JUMP JUMPDEST DUP1 PUSH1 0x1F ADD PUSH1 0x20 DUP1 SWAP2 DIV MUL PUSH1 0x20 ADD PUSH1 0x40 MLOAD SWAP1 DUP2 ADD PUSH1 0x40 MSTORE DUP1 SWAP3 SWAP2 SWAP1 DUP2 DUP2 MSTORE PUSH1 0x20 ADD DUP3 DUP1 SLOAD PUSH2 0x654 SWAP1 PUSH2 0x1BB0 JUMP JUMPDEST DUP1 ISZERO PUSH2 0x6A1 JUMPI DUP1 PUSH1 0x1F LT PUSH2 0x676 JUMPI PUSH2 0x100 DUP1 DUP4 SLOAD DIV MUL DUP4 MSTORE SWAP2 PUSH1 0x20 ADD SWAP2 PUSH2 0x6A1 JUMP JUMPDEST DUP3 ADD SWAP2 SWAP1 PUSH1 0x0 MSTORE PUSH1 0x20 PUSH1 0x0 KECCAK256 SWAP1 JUMPDEST DUP2 SLOAD DUP2 MSTORE SWAP1 PUSH1 0x1 ADD SWAP1 PUSH1 0x20 ADD DUP1 DUP4 GT PUSH2 0x684 JUMPI DUP3 SWAP1 SUB PUSH1 0x1F AND DUP3 ADD SWAP2 JUMPDEST POP POP POP POP POP DUP2 MSTORE PUSH1 0x20 ADD SWAP1 PUSH1 0x1 ADD SWAP1 PUSH2 0x609 JUMP JUMPDEST POP POP POP POP SWAP2 POP POP SWAP2 SWAP1 POP JUMP JUMPDEST PUSH1 0x0 DUP2 PUSH1 0x1 SLOAD DUP2 LT PUSH2 0x6FF JUMPI PUSH1 0x40 MLOAD PUSH32 0xCD9F14E100000000000000000000000000000000000000000000000000000000 DUP2 MSTORE PUSH1 0x4 ADD PUSH1 0x40 MLOAD DUP1 SWAP2 SUB SWAP1 REVERT JUMPDEST PUSH1 0x0 PUSH1 0x2 PUSH1 0x0 DUP6 DUP2 MSTORE PUSH1 0x20 ADD SWAP1 DUP2 MSTORE PUSH1 0x20 ADD PUSH1 0x0 KECCAK256 SWAP1 POP PUSH1 0x0 DUP1 SWAP4 POP PUSH1 0x0 JUMPDEST DUP3 PUSH1 0x2 ADD DUP1 SLOAD SWAP1 POP DUP2 LT ISZERO PUSH2 0x78F JUMPI DUP2 DUP4 PUSH1 0x2 ADD DUP3 DUP2 SLOAD DUP2 LT PUSH2 0x744 JUMPI PUSH2 0x743 PUSH2 0x1EA4 JUMP JUMPDEST JUMPDEST SWAP1 PUSH1 0x0 MSTORE PUSH1 0x20 PUSH1 0x0 KECCAK256 ADD SLOAD GT ISZERO PUSH2 0x77C JUMPI DUP3 PUSH1 0x2 ADD DUP2 DUP2 SLOAD DUP2 LT PUSH2 0x76B JUMPI PUSH2 0x76A PUSH2 0x1EA4 JUMP JUMPDEST JUMPDEST SWAP1 PUSH1 0x0 MSTORE PUSH1 0x20 PUSH1 0x0 KECCAK256 ADD SLOAD SWAP2 POP DUP1 SWAP5 POP JUMPDEST DUP1 DUP1 PUSH2 0x787 SWAP1 PUSH2 0x1B39 JUMP JUMPDEST SWAP2 POP POP PUSH2 0x71E JUMP JUMPDEST POP POP POP POP SWAP2 SWAP1 POP JUMP JUMPDEST PUSH1 0x0 DUP3 PUSH1 0x1 SLOAD DUP2 LT PUSH2 0x7D6 JUMPI PUSH1 0x40 MLOAD PUSH32 0xCD9F14E100000000000000000000000000000000000000000000000000000000 DUP2 MSTORE PUSH1 0x4 ADD PUSH1 0x40 MLOAD DUP1 SWAP2 SUB SWAP1 REVERT JUMPDEST PUSH1 0x2 PUSH1 0x0 DUP6 DUP2 MSTORE PUSH1 0x20 ADD SWAP1 DUP2 MSTORE PUSH1 0x20 ADD PUSH1 0x0 KECCAK256 PUSH1 0x4 ADD PUSH1 0x0 DUP5 PUSH20 0xFFFFFFFFFFFFFFFFFFFFFFFFFFFFFFFFFFFFFFFF AND PUSH20 0xFFFFFFFFFFFFFFFFFFFFFFFFFFFFFFFFFFFFFFFF AND DUP2 MSTORE PUSH1 0x20 ADD SWAP1 DUP2 MSTORE PUSH1 0x20 ADD PUSH1 0x0 KECCAK256 PUSH1 0x0 SWAP1 SLOAD SWAP1 PUSH2 0x100 EXP SWAP1 DIV PUSH1 0xFF AND SWAP2 POP POP SWAP3 SWAP2 POP POP JUMP JUMPDEST PUSH1 0x60 DUP2 PUSH1 0x1 SLOAD DUP2 LT PUSH2 0x87E JUMPI PUSH1 0x40 MLOAD PUSH32 0xCD9F14E100000000000000000000000000000000000000000000000000000000 DUP2 MSTORE PUSH1 0x4 ADD PUSH1 0x40 MLOAD DUP1 SWAP2 SUB SWAP1 REVERT JUMPDEST PUSH1 0x0 PUSH1 0x2 PUSH1 0x0 DUP6 DUP2 MSTORE PUSH1 0x20 ADD SWAP1 DUP2 MSTORE PUSH1 0x20 ADD PUSH1 0x0 KECCAK256 SWAP1 POP DUP1 PUSH1 0x3 ADD PUSH1 0x12 SWAP1 SLOAD SWAP1 PUSH2 0x100 EXP SWAP1 DIV PUSH1 0xFF AND ISZERO DUP1 ISZERO PUSH2 0x8C3 JUMPI POP DUP1 PUSH1 0x3 ADD PUSH1 0x11 SWAP1 SLOAD SWAP1 PUSH2 0x100 EXP SWAP1 DIV PUSH1 0xFF AND ISZERO JUMPDEST ISZERO PUSH2 0x920 JUMPI DUP1 PUSH1 0x1 ADD DUP1 SLOAD SWAP1 POP PUSH8 0xFFFFFFFFFFFFFFFF DUP2 GT ISZERO PUSH2 0x8E9 JUMPI PUSH2 0x8E8 PUSH2 0x12D7 JUMP JUMPDEST JUMPDEST PUSH1 0x40 MLOAD SWAP1 DUP1 DUP3 MSTORE DUP1 PUSH1 0x20 MUL PUSH1 0x20 ADD DUP3 ADD PUSH1 0x40 MSTORE DUP1 ISZERO PUSH2 0x917 JUMPI DUP2 PUSH1 0x20 ADD PUSH1 0x20 DUP3 MUL DUP1 CALLDATASIZE DUP4 CALLDATACOPY DUP1 DUP3 ADD SWAP2 POP POP SWAP1 POP JUMPDEST POP SWAP3 POP POP PUSH2 0x977 JUMP JUMPDEST DUP1 PUSH1 0x2 ADD DUP1 SLOAD DUP1 PUSH1 0x20 MUL PUSH1 0x20 ADD PUSH1 0x40 MLOAD SWAP1 DUP2 ADD PUSH1 0x40 MSTORE DUP1 SWAP3 SWAP2 SWAP1 DUP2 DUP2 MSTORE PUSH1 0x20 ADD DUP3 DUP1 SLOAD DUP1 ISZERO PUSH2 0x96E JUMPI PUSH1 0x20 MUL DUP3 ADD SWAP2 SWAP1 PUSH1 0x0 MSTORE PUSH1 0x20 PUSH1 0x0 KECCAK256 SWAP1 JUMPDEST DUP2 SLOAD DUP2 MSTORE PUSH1 0x20 ADD SWAP1 PUSH1 0x1 ADD SWAP1 DUP1 DUP4 GT PUSH2 0x95A JUMPI JUMPDEST POP POP POP POP POP SWAP3 POP POP JUMPDEST POP SWAP2 SWAP1 POP JUMP JUMPDEST PUSH1 0x1 SLOAD DUP2 JUMP JUMPDEST PUSH1 0x0 DUP1 SLOAD SWAP1 PUSH2 0x100 EXP SWAP1 DIV PUSH20 0xFFFFFFFFFFFFFFFFFFFFFFFFFFFFFFFFFFFFFFFF AND PUSH20 0xFFFFFFFFFFFFFFFFFFFFFFFFFFFFFFFFFFFFFFFF AND CALLER PUSH20 0xFFFFFFFFFFFFFFFFFFFFFFFFFFFFFFFFFFFFFFFF AND EQ PUSH2 0xA08 JUMPI PUSH1 0x40 MLOAD PUSH32 0x4755657900000000000000000000000000000000000000000000000000000000 DUP2 MSTORE PUSH1 0x4 ADD PUSH1 0x40 MLOAD DUP1 SWAP2 SUB SWAP1 REVERT JUMPDEST DUP1 PUSH1 0x1 SLOAD DUP2 LT PUSH2 0xA44 JUMPI PUSH1 0x40 MLOAD PUSH32 0xCD9F14E100000000000000000000000000000000000000000000000000000000 DUP2 MSTORE PUSH1 0x4 ADD PUSH1 0x40 MLOAD DUP1 SWAP2 SUB SWAP1 REVERT JUMPDEST PUSH1 0x0 PUSH1 0x2 PUSH1 0x0 DUP5 DUP2 MSTORE PUSH1 0x20 ADD SWAP1 DUP2 MSTORE PUSH1 0x20 ADD PUSH1 0x0 KECCAK256 SWAP1 POP PUSH1 0x0 DUP2 PUSH1 0x3 ADD PUSH1 0x10 PUSH2 0x100 EXP DUP2 SLOAD DUP2 PUSH1 0xFF MUL NOT AND SWAP1 DUP4 ISZERO ISZERO MUL OR SWAP1 SSTORE POP PUSH1 0x1 DUP2 PUSH1 0x3 ADD PUSH1 0x11 PUSH2 0x100 EXP DUP2 SLOAD DUP2 PUSH1 0xFF MUL NOT AND SWAP1 DUP4 ISZERO ISZERO MUL OR SWAP1 SSTORE POP DUP3 PUSH32 0x562CD572B2BA3B666CD989FC4CA98419EC81E75F04528DF9D9D76FDB7807EE71 PUSH1 0x40 MLOAD PUSH1 0x40 MLOAD DUP1 SWAP2 SUB SWAP1 LOG2 POP POP POP JUMP JUMPDEST DUP2 PUSH1 0x1 SLOAD DUP2 LT PUSH2 0xB03 JUMPI PUSH1 0x40 MLOAD PUSH32 0xCD9F14E100000000000000000000000000000000000000000000000000000000 DUP2 MSTORE PUSH1 0x4 ADD PUSH1 0x40 MLOAD DUP1 SWAP2 SUB SWAP1 REVERT JUMPDEST PUSH1 0x0 PUSH1 0x2 PUSH1 0x0 DUP6 DUP2 MSTORE PUSH1 0x20 ADD SWAP1 DUP2 MSTORE PUSH1 0x20 ADD PUSH1 0x0 KECCAK256 SWAP1 POP DUP1 PUSH1 0x3 ADD PUSH1 0x10 SWAP1 SLOAD SWAP1 PUSH2 0x100 EXP SWAP1 DIV PUSH1 0xFF AND PUSH2 0xB62 JUMPI PUSH1 0x40 MLOAD PUSH32 0x80CB55E200000000000000000000000000000000000000000000000000000000 DUP2 MSTORE PUSH1 0x4 ADD PUSH1 0x40 MLOAD DUP1 SWAP2 SUB SWAP1 REVERT JUMPDEST DUP1 PUSH1 0x3 ADD PUSH1 0x0 SWAP1 SLOAD SWAP1 PUSH2 0x100 EXP SWAP1 DIV PUSH8 0xFFFFFFFFFFFFFFFF AND PUSH8 0xFFFFFFFFFFFFFFFF AND TIMESTAMP LT DUP1 PUSH2 0xBB3 JUMPI POP DUP1 PUSH1 0x3 ADD PUSH1 0x8 SWAP1 SLOAD SWAP1 PUSH2 0x100 EXP SWAP1 DIV PUSH8 0xFFFFFFFFFFFFFFFF AND PUSH8 0xFFFFFFFFFFFFFFFF AND TIMESTAMP GT JUMPDEST ISZERO PUSH2 0xBEA JUMPI PUSH1 0x40 MLOAD PUSH32 0x66B6CB4A00000000000000000000000000000000000000000000000000000000 DUP2 MSTORE PUSH1 0x4 ADD PUSH1 0x40 MLOAD DUP1 SWAP2 SUB SWAP1 REVERT JUMPDEST DUP1 PUSH1 0x1 ADD DUP1 SLOAD SWAP1 POP DUP4 LT PUSH2 0xC2A JUMPI PUSH1 0x40 MLOAD PUSH32 0xE66EA08F00000000000000000000000000000000000000000000000000000000 DUP2 MSTORE PUSH1 0x4 ADD PUSH1 0x40 MLOAD DUP1 SWAP2 SUB SWAP1 REVERT JUMPDEST DUP1 PUSH1 0x4 ADD PUSH1 0x0 CALLER PUSH20 0xFFFFFFFFFFFFFFFFFFFFFFFFFFFFFFFFFFFFFFFF AND PUSH20 0xFFFFFFFFFFFFFFFFFFFFFFFFFFFFFFFFFFFFFFFF AND DUP2 MSTORE PUSH1 0x20 ADD SWAP1 DUP2 MSTORE PUSH1 0x20 ADD PUSH1 0x0 KECCAK256 PUSH1 0x0 SWAP1 SLOAD SWAP1 PUSH2 0x100 EXP SWAP1 DIV PUSH1 0xFF AND ISZERO PUSH2 0xCB0 JUMPI PUSH1 0x40 MLOAD PUSH32 0x7C9A1CF900000000000000000000000000000000000000000000000000000000 DUP2 MSTORE PUSH1 0x4 ADD PUSH1 0x40 MLOAD DUP1 SWAP2 SUB SWAP1 REVERT JUMPDEST PUSH1 0x1 DUP2 PUSH1 0x2 ADD DUP5 DUP2 SLOAD DUP2 LT PUSH2 0xCC8 JUMPI PUSH2 0xCC7 PUSH2 0x1EA4 JUMP JUMPDEST JUMPDEST SWAP1 PUSH1 0x0 MSTORE PUSH1 0x20 PUSH1 0x0 KECCAK256 ADD PUSH1 0x0 DUP3 DUP3 SLOAD PUSH2 0xCE1 SWAP2 SWAP1 PUSH2 0x1ED3 JUMP JUMPDEST SWAP3 POP POP DUP2 SWAP1 SSTORE POP PUSH1 0x1 DUP2 PUSH1 0x4 ADD PUSH1 0x0 CALLER PUSH20 0xFFFFFFFFFFFFFFFFFFFFFFFFFFFFFFFFFFFFFFFF AND PUSH20 0xFFFFFFFFFFFFFFFFFFFFFFFFFFFFFFFFFFFFFFFF AND DUP2 MSTORE PUSH1 0x20 ADD SWAP1 DUP2 MSTORE PUSH1 0x20 ADD PUSH1 0x0 KECCAK256 PUSH1 0x0 PUSH2 0x100 EXP DUP2 SLOAD DUP2 PUSH1 0xFF MUL NOT AND SWAP1 DUP4 ISZERO ISZERO MUL OR SWAP1 SSTORE POP CALLER PUSH20 0xFFFFFFFFFFFFFFFFFFFFFFFFFFFFFFFFFFFFFFFF AND DUP5 PUSH32 0x2ACCE567DECA3AABF56327ADBB4524BD5318936EAEFA69E3A5208FFDA0CFEC09 DUP6 PUSH1 0x40 MLOAD PUSH2 0xD89 SWAP2 SWAP1 PUSH2 0x15BA JUMP JUMPDEST PUSH1 0x40 MLOAD DUP1 SWAP2 SUB SWAP1 LOG3 POP POP POP POP JUMP JUMPDEST PUSH1 0x60 PUSH1 0x0 DUP1 PUSH1 0x0 DUP1 PUSH1 0x0 DUP7 PUSH1 0x1 SLOAD DUP2 LT PUSH2 0xDDD JUMPI PUSH1 0x40 MLOAD PUSH32 0xCD9F14E100000000000000000000000000000000000000000000000000000000 DUP2 MSTORE PUSH1 0x4 ADD PUSH1 0x40 MLOAD DUP1 SWAP2 SUB SWAP1 REVERT JUMPDEST PUSH1 0x0 PUSH1 0x2 PUSH1 0x0 DUP11 DUP2 MSTORE PUSH1 0x20 ADD SWAP1 DUP2 MSTORE PUSH1 0x20 ADD PUSH1 0x0 KECCAK256 SWAP1 POP DUP1 PUSH1 0x0 ADD DUP2 PUSH1 0x3 ADD PUSH1 0x0 SWAP1 SLOAD SWAP1 PUSH2 0x100 EXP SWAP1 DIV PUSH8 0xFFFFFFFFFFFFFFFF AND DUP3 PUSH1 0x3 ADD PUSH1 0x8 SWAP1 SLOAD SWAP1 PUSH2 0x100 EXP SWAP1 DIV PUSH8 0xFFFFFFFFFFFFFFFF AND DUP4 PUSH1 0x3 ADD PUSH1 0x10 SWAP1 SLOAD SWAP1 PUSH2 0x100 EXP SWAP1 DIV PUSH1 0xFF AND DUP5 PUSH1 0x3 ADD PUSH1 0x11 SWAP1 SLOAD SWAP1 PUSH2 0x100 EXP SWAP1 DIV PUSH1 0xFF AND DUP6 PUSH1 0x3 ADD PUSH1 0x12 SWAP1 SLOAD SWAP1 PUSH2 0x100 EXP SWAP1 DIV PUSH1 0xFF AND DUP6 DUP1 SLOAD PUSH2 0xE6C SWAP1 PUSH2 0x1BB0 JUMP JUMPDEST DUP1 PUSH1 0x1F ADD PUSH1 0x20 DUP1 SWAP2 DIV MUL PUSH1 0x20 ADD PUSH1 0x40 MLOAD SWAP1 DUP2 ADD PUSH1 0x40 MSTORE DUP1 SWAP3 SWAP2 SWAP1 DUP2 DUP2 MSTORE PUSH1 0x20 ADD DUP3 DUP1 SLOAD PUSH2 0xE98 SWAP1 PUSH2 0x1BB0 JUMP JUMPDEST DUP1 ISZERO PUSH2 0xEE5 JUMPI DUP1 PUSH1 0x1F LT PUSH2 0xEBA JUMPI PUSH2 0x100 DUP1 DUP4 SLOAD DIV MUL DUP4 MSTORE SWAP2 PUSH1 0x20 ADD SWAP2 PUSH2 0xEE5 JUMP JUMPDEST DUP3 ADD SWAP2 SWAP1 PUSH1 0x0 MSTORE PUSH1 0x20 PUSH1 0x0 KECCAK256 SWAP1 JUMPDEST DUP2 SLOAD DUP2 MSTORE SWAP1 PUSH1 0x1 ADD SWAP1 PUSH1 0x20 ADD DUP1 DUP4 GT PUSH2 0xEC8 JUMPI DUP3 SWAP1 SUB PUSH1 0x1F AND DUP3 ADD SWAP2 JUMPDEST POP POP POP POP POP SWAP6 POP SWAP8 POP SWAP8 POP SWAP8 POP SWAP8 POP SWAP8 POP SWAP8 POP POP POP SWAP2 SWAP4 SWAP6 POP SWAP2 SWAP4 SWAP6 JUMP JUMPDEST PUSH1 0x0 DUP1 SLOAD SWAP1 PUSH2 0x100 EXP SWAP1 DIV PUSH20 0xFFFFFFFFFFFFFFFFFFFFFFFFFFFFFFFFFFFFFFFF AND PUSH20 0xFFFFFFFFFFFFFFFFFFFFFFFFFFFFFFFFFFFFFFFF AND CALLER PUSH20 0xFFFFFFFFFFFFFFFFFFFFFFFFFFFFFFFFFFFFFFFF AND EQ PUSH2 0xF88 JUMPI PUSH1 0x40 MLOAD PUSH32 0x4755657900000000000000000000000000000000000000000000000000000000 DUP2 MSTORE PUSH1 0x4 ADD PUSH1 0x40 MLOAD DUP1 SWAP2 SUB SWAP1 REVERT JUMPDEST DUP3 PUSH1 0x1 SLOAD DUP2 LT PUSH2 0xFC4 JUMPI PUSH1 0x40 MLOAD PUSH32 0xCD9F14E100000000000000000000000000000000000000000000000000000000 DUP2 MSTORE PUSH1 0x4 ADD PUSH1 0x40 MLOAD DUP1 SWAP2 SUB SWAP1 REVERT JUMPDEST DUP3 PUSH8 0xFFFFFFFFFFFFFFFF AND DUP3 PUSH8 0xFFFFFFFFFFFFFFFF AND GT DUP1 ISZERO PUSH2 0xFF0 JUMPI POP TIMESTAMP DUP3 PUSH8 0xFFFFFFFFFFFFFFFF AND GT JUMPDEST PUSH2 0x102F JUMPI PUSH1 0x40 MLOAD PUSH32 0x8C379A000000000000000000000000000000000000000000000000000000000 DUP2 MSTORE PUSH1 0x4 ADD PUSH2 0x1026 SWAP1 PUSH2 0x1F53 JUMP JUMPDEST PUSH1 0x40 MLOAD DUP1 SWAP2 SUB SWAP1 REVERT JUMPDEST PUSH1 0x0 PUSH1 0x2 PUSH1 0x0 DUP7 DUP2 MSTORE PUSH1 0x20 ADD SWAP1 DUP2 MSTORE PUSH1 0x20 ADD PUSH1 0x0 KECCAK256 SWAP1 POP DUP4 DUP2 PUSH1 0x3 ADD PUSH1 0x0 PUSH2 0x100 EXP DUP2 SLOAD DUP2 PUSH8 0xFFFFFFFFFFFFFFFF MUL NOT AND SWAP1 DUP4 PUSH8 0xFFFFFFFFFFFFFFFF AND MUL OR SWAP1 SSTORE POP DUP3 DUP2 PUSH1 0x3 ADD PUSH1 0x8 PUSH2 0x100 EXP DUP2 SLOAD DUP2 PUSH8 0xFFFFFFFFFFFFFFFF MUL NOT AND SWAP1 DUP4 PUSH8 0xFFFFFFFFFFFFFFFF AND MUL OR SWAP1 SSTORE POP PUSH1 0x1 DUP2 PUSH1 0x3 ADD PUSH1 0x10 PUSH2 0x100 EXP DUP2 SLOAD DUP2 PUSH1 0xFF MUL NOT AND SWAP1 DUP4 ISZERO ISZERO MUL OR SWAP1 SSTORE POP DUP5 PUSH32 0x5C86F625F5ABD1385C78F66FA5CAE221087D7EF4E0A8B37EFDFD0592C85A759 DUP6 DUP6 PUSH1 0x40 MLOAD PUSH2 0x10EB SWAP3 SWAP2 SWAP1 PUSH2 0x1FA4 JUMP JUMPDEST PUSH1 0x40 MLOAD DUP1 SWAP2 SUB SWAP1 LOG2 POP POP POP POP POP JUMP JUMPDEST PUSH1 0x0 DUP1 SLOAD SWAP1 PUSH2 0x100 EXP SWAP1 DIV PUSH20 0xFFFFFFFFFFFFFFFFFFFFFFFFFFFFFFFFFFFFFFFF AND DUP2 JUMP JUMPDEST DUP3 DUP1 SLOAD DUP3 DUP3 SSTORE SWAP1 PUSH1 0x0 MSTORE PUSH1 0x20 PUSH1 0x0 KECCAK256 SWAP1 DUP2 ADD SWAP3 DUP3 ISZERO PUSH2 0x1166 JUMPI SWAP2 PUSH1 0x20 MUL DUP3 ADD JUMPDEST DUP3 DUP2 GT ISZERO PUSH2 0x1165 JUMPI DUP3 MLOAD DUP3 SWAP1 DUP2 PUSH2 0x1155 SWAP2 SWAP1 PUSH2 0x1D8D JUMP JUMPDEST POP SWAP2 PUSH1 0x20 ADD SWAP2 SWAP1 PUSH1 0x1 ADD SWAP1 PUSH2 0x113E JUMP JUMPDEST JUMPDEST POP SWAP1 POP PUSH2 0x1173 SWAP2 SWAP1 PUSH2 0x11C4 JUMP JUMPDEST POP SWAP1 JUMP JUMPDEST DUP3 DUP1 SLOAD DUP3 DUP3 SSTORE SWAP1 PUSH1 0x0 MSTORE PUSH1 0x20 PUSH1 0x0 KECCAK256 SWAP1 DUP2 ADD SWAP3 DUP3 ISZERO PUSH2 0x11B3 JUMPI SWAP2 PUSH1 0x20 MUL DUP3 ADD JUMPDEST DUP3 DUP2 GT ISZERO PUSH2 0x11B2 JUMPI DUP3 MLOAD DUP3 SSTORE SWAP2 PUSH1 0x20 ADD SWAP2 SWAP1 PUSH1 0x1 ADD SWAP1 PUSH2 0x1197 JUMP JUMPDEST JUMPDEST POP SWAP1 POP PUSH2 0x11C0 SWAP2 SWAP1 PUSH2 0x11E8 JUMP JUMPDEST POP SWAP1 JUMP JUMPDEST JUMPDEST DUP1 DUP3 GT ISZERO PUSH2 0x11E4 JUMPI PUSH1 0x0 DUP2 DUP2 PUSH2 0x11DB SWAP2 SWAP1 PUSH2 0x1205 JUMP JUMPDEST POP PUSH1 0x1 ADD PUSH2 0x11C5 JUMP JUMPDEST POP SWAP1 JUMP JUMPDEST JUMPDEST DUP1 DUP3 GT ISZERO PUSH2 0x1201 JUMPI PUSH1 0x0 DUP2 PUSH1 0x0 SWAP1 SSTORE POP PUSH1 0x1 ADD PUSH2 0x11E9 JUMP JUMPDEST POP SWAP1 JUMP JUMPDEST POP DUP1 SLOAD PUSH2 0x1211 SWAP1 PUSH2 0x1BB0 JUMP JUMPDEST PUSH1 0x0 DUP3 SSTORE DUP1 PUSH1 0x1F LT PUSH2 0x1223 JUMPI POP PUSH2 0x1242 JUMP JUMPDEST PUSH1 0x1F ADD PUSH1 0x20 SWAP1 DIV SWAP1 PUSH1 0x0 MSTORE PUSH1 0x20 PUSH1 0x0 KECCAK256 SWAP1 DUP2 ADD SWAP1 PUSH2 0x1241 SWAP2 SWAP1 PUSH2 0x11E8 JUMP JUMPDEST JUMPDEST POP JUMP JUMPDEST PUSH1 0x0 PUSH1 0x40 MLOAD SWAP1 POP SWAP1 JUMP JUMPDEST PUSH1 0x0 DUP1 REVERT JUMPDEST PUSH1 0x0 DUP1 REVERT JUMPDEST PUSH1 0x0 DUP2 SWAP1 POP SWAP2 SWAP1 POP JUMP JUMPDEST PUSH2 0x126C DUP2 PUSH2 0x1259 JUMP JUMPDEST DUP2 EQ PUSH2 0x1277 JUMPI PUSH1 0x0 DUP1 REVERT JUMPDEST POP JUMP JUMPDEST PUSH1 0x0 DUP2 CALLDATALOAD SWAP1 POP PUSH2 0x1289 DUP2 PUSH2 0x1263 JUMP JUMPDEST SWAP3 SWAP2 POP POP JUMP JUMPDEST PUSH1 0x0 PUSH1 0x20 DUP3 DUP5 SUB SLT ISZERO PUSH2 0x12A5 JUMPI PUSH2 0x12A4 PUSH2 0x124F JUMP JUMPDEST JUMPDEST PUSH1 0x0 PUSH2 0x12B3 DUP5 DUP3 DUP6 ADD PUSH2 0x127A JUMP JUMPDEST SWAP2 POP POP SWAP3 SWAP2 POP POP JUMP JUMPDEST PUSH1 0x0 DUP1 REVERT JUMPDEST PUSH1 0x0 DUP1 REVERT JUMPDEST PUSH1 0x0 PUSH1 0x1F NOT PUSH1 0x1F DUP4 ADD AND SWAP1 POP SWAP2 SWAP1 POP JUMP JUMPDEST PUSH32 0x4E487B7100000000000000000000000000000000000000000000000000000000 PUSH1 0x0 MSTORE PUSH1 0x41 PUSH1 0x4 MSTORE PUSH1 0x24 PUSH1 0x0 REVERT JUMPDEST PUSH2 0x130F DUP3 PUSH2 0x12C6 JUMP JUMPDEST DUP2 ADD DUP2 DUP2 LT PUSH8 0xFFFFFFFFFFFFFFFF DUP3 GT OR ISZERO PUSH2 0x132E JUMPI PUSH2 0x132D PUSH2 0x12D7 JUMP JUMPDEST JUMPDEST DUP1 PUSH1 0x40 MSTORE POP POP POP JUMP JUMPDEST PUSH1 0x0 PUSH2 0x1341 PUSH2 0x1245 JUMP JUMPDEST SWAP1 POP PUSH2 0x134D DUP3 DUP3 PUSH2 0x1306 JUMP JUMPDEST SWAP2 SWAP1 POP JUMP JUMPDEST PUSH1 0x0 PUSH8 0xFFFFFFFFFFFFFFFF DUP3 GT ISZERO PUSH2 0x136D JUMPI PUSH2 0x136C PUSH2 0x12D7 JUMP JUMPDEST JUMPDEST PUSH2 0x1376 DUP3 PUSH2 0x12C6 JUMP JUMPDEST SWAP1 POP PUSH1 0x20 DUP2 ADD SWAP1 POP SWAP2 SWAP1 POP JUMP JUMPDEST DUP3 DUP2 DUP4 CALLDATACOPY PUSH1 0x0 DUP4 DUP4 ADD MSTORE POP POP POP JUMP JUMPDEST PUSH1 0x0 PUSH2 0x13A5 PUSH2 0x13A0 DUP5 PUSH2 0x1352 JUMP JUMPDEST PUSH2 0x1337 JUMP JUMPDEST SWAP1 POP DUP3 DUP2 MSTORE PUSH1 0x20 DUP2 ADD DUP5 DUP5 DUP5 ADD GT ISZERO PUSH2 0x13C1 JUMPI PUSH2 0x13C0 PUSH2 0x12C1 JUMP JUMPDEST JUMPDEST PUSH2 0x13CC DUP5 DUP3 DUP6 PUSH2 0x1383 JUMP JUMPDEST POP SWAP4 SWAP3 POP POP POP JUMP JUMPDEST PUSH1 0x0 DUP3 PUSH1 0x1F DUP4 ADD SLT PUSH2 0x13E9 JUMPI PUSH2 0x13E8 PUSH2 0x12BC JUMP JUMPDEST JUMPDEST DUP2 CALLDATALOAD PUSH2 0x13F9 DUP5 DUP3 PUSH1 0x20 DUP7 ADD PUSH2 0x1392 JUMP JUMPDEST SWAP2 POP POP SWAP3 SWAP2 POP POP JUMP JUMPDEST PUSH1 0x0 PUSH8 0xFFFFFFFFFFFFFFFF DUP3 GT ISZERO PUSH2 0x141D JUMPI PUSH2 0x141C PUSH2 0x12D7 JUMP JUMPDEST JUMPDEST PUSH1 0x20 DUP3 MUL SWAP1 POP PUSH1 0x20 DUP2 ADD SWAP1 POP SWAP2 SWAP1 POP JUMP JUMPDEST PUSH1 0x0 DUP1 REVERT JUMPDEST PUSH1 0x0 PUSH2 0x1446 PUSH2 0x1441 DUP5 PUSH2 0x1402 JUMP JUMPDEST PUSH2 0x1337 JUMP JUMPDEST SWAP1 POP DUP1 DUP4 DUP3 MSTORE PUSH1 0x20 DUP3 ADD SWAP1 POP PUSH1 0x20 DUP5 MUL DUP4 ADD DUP6 DUP2 GT ISZERO PUSH2 0x1469 JUMPI PUSH2 0x1468 PUSH2 0x142E JUMP JUMPDEST JUMPDEST DUP4 JUMPDEST DUP2 DUP2 LT ISZERO PUSH2 0x14B0 JUMPI DUP1 CALLDATALOAD PUSH8 0xFFFFFFFFFFFFFFFF DUP2 GT ISZERO PUSH2 0x148E JUMPI PUSH2 0x148D PUSH2 0x12BC JUMP JUMPDEST JUMPDEST DUP1 DUP7 ADD PUSH2 0x149B DUP10 DUP3 PUSH2 0x13D4 JUMP JUMPDEST DUP6 MSTORE PUSH1 0x20 DUP6 ADD SWAP5 POP POP POP PUSH1 0x20 DUP2 ADD SWAP1 POP PUSH2 0x146B JUMP JUMPDEST POP POP POP SWAP4 SWAP3 POP POP POP JUMP JUMPDEST PUSH1 0x0 DUP3 PUSH1 0x1F DUP4 ADD SLT PUSH2 0x14CF JUMPI PUSH2 0x14CE PUSH2 0x12BC JUMP JUMPDEST JUMPDEST DUP2 CALLDATALOAD PUSH2 0x14DF DUP5 DUP3 PUSH1 0x20 DUP7 ADD PUSH2 0x1433 JUMP JUMPDEST SWAP2 POP POP SWAP3 SWAP2 POP POP JUMP JUMPDEST PUSH1 0x0 DUP2 ISZERO ISZERO SWAP1 POP SWAP2 SWAP1 POP JUMP JUMPDEST PUSH2 0x14FD DUP2 PUSH2 0x14E8 JUMP JUMPDEST DUP2 EQ PUSH2 0x1508 JUMPI PUSH1 0x0 DUP1 REVERT JUMPDEST POP JUMP JUMPDEST PUSH1 0x0 DUP2 CALLDATALOAD SWAP1 POP PUSH2 0x151A DUP2 PUSH2 0x14F4 JUMP JUMPDEST SWAP3 SWAP2 POP POP JUMP JUMPDEST PUSH1 0x0 DUP1 PUSH1 0x0 PUSH1 0x60 DUP5 DUP7 SUB SLT ISZERO PUSH2 0x1539 JUMPI PUSH2 0x1538 PUSH2 0x124F JUMP JUMPDEST JUMPDEST PUSH1 0x0 DUP5 ADD CALLDATALOAD PUSH8 0xFFFFFFFFFFFFFFFF DUP2 GT ISZERO PUSH2 0x1557 JUMPI PUSH2 0x1556 PUSH2 0x1254 JUMP JUMPDEST JUMPDEST PUSH2 0x1563 DUP7 DUP3 DUP8 ADD PUSH2 0x13D4 JUMP JUMPDEST SWAP4 POP POP PUSH1 0x20 DUP5 ADD CALLDATALOAD PUSH8 0xFFFFFFFFFFFFFFFF DUP2 GT ISZERO PUSH2 0x1584 JUMPI PUSH2 0x1583 PUSH2 0x1254 JUMP JUMPDEST JUMPDEST PUSH2 0x1590 DUP7 DUP3 DUP8 ADD PUSH2 0x14BA JUMP JUMPDEST SWAP3 POP POP PUSH1 0x40 PUSH2 0x15A1 DUP7 DUP3 DUP8 ADD PUSH2 0x150B JUMP JUMPDEST SWAP2 POP POP SWAP3 POP SWAP3 POP SWAP3 JUMP JUMPDEST PUSH2 0x15B4 DUP2 PUSH2 0x1259 JUMP JUMPDEST DUP3 MSTORE POP POP JUMP JUMPDEST PUSH1 0x0 PUSH1 0x20 DUP3 ADD SWAP1 POP PUSH2 0x15CF PUSH1 0x0 DUP4 ADD DUP5 PUSH2 0x15AB JUMP JUMPDEST SWAP3 SWAP2 POP POP JUMP JUMPDEST PUSH1 0x0 DUP2 MLOAD SWAP1 POP SWAP2 SWAP1 POP JUMP JUMPDEST PUSH1 0x0 DUP3 DUP3 MSTORE PUSH1 0x20 DUP3 ADD SWAP1 POP SWAP3 SWAP2 POP POP JUMP JUMPDEST PUSH1 0x0 DUP2 SWAP1 POP PUSH1 0x20 DUP3 ADD SWAP1 POP SWAP2 SWAP1 POP JUMP JUMPDEST PUSH1 0x0 DUP2 MLOAD SWAP1 POP SWAP2 SWAP1 POP JUMP JUMPDEST PUSH1 0x0 DUP3 DUP3 MSTORE PUSH1 0x20 DUP3 ADD SWAP1 POP SWAP3 SWAP2 POP POP JUMP JUMPDEST PUSH1 0x0 JUMPDEST DUP4 DUP2 LT ISZERO PUSH2 0x163B JUMPI DUP1 DUP3 ADD MLOAD DUP2 DUP5 ADD MSTORE PUSH1 0x20 DUP2 ADD SWAP1 POP PUSH2 0x1620 JUMP JUMPDEST PUSH1 0x0 DUP5 DUP5 ADD MSTORE POP POP POP POP JUMP JUMPDEST PUSH1 0x0 PUSH2 0x1652 DUP3 PUSH2 0x1601 JUMP JUMPDEST PUSH2 0x165C DUP2 DUP6 PUSH2 0x160C JUMP JUMPDEST SWAP4 POP PUSH2 0x166C DUP2 DUP6 PUSH1 0x20 DUP7 ADD PUSH2 0x161D JUMP JUMPDEST PUSH2 0x1675 DUP2 PUSH2 0x12C6 JUMP JUMPDEST DUP5 ADD SWAP2 POP POP SWAP3 SWAP2 POP POP JUMP JUMPDEST PUSH1 0x0 PUSH2 0x168C DUP4 DUP4 PUSH2 0x1647 JUMP JUMPDEST SWAP1 POP SWAP3 SWAP2 POP POP JUMP JUMPDEST PUSH1 0x0 PUSH1 0x20 DUP3 ADD SWAP1 POP SWAP2 SWAP1 POP JUMP JUMPDEST PUSH1 0x0 PUSH2 0x16AC DUP3 PUSH2 0x15D5 JUMP JUMPDEST PUSH2 0x16B6 DUP2 DUP6 PUSH2 0x15E0 JUMP JUMPDEST SWAP4 POP DUP4 PUSH1 0x20 DUP3 MUL DUP6 ADD PUSH2 0x16C8 DUP6 PUSH2 0x15F1 JUMP JUMPDEST DUP1 PUSH1 0x0 JUMPDEST DUP6 DUP2 LT ISZERO PUSH2 0x1704 JUMPI DUP5 DUP5 SUB DUP10 MSTORE DUP2 MLOAD PUSH2 0x16E5 DUP6 DUP3 PUSH2 0x1680 JUMP JUMPDEST SWAP5 POP PUSH2 0x16F0 DUP4 PUSH2 0x1694 JUMP JUMPDEST SWAP3 POP PUSH1 0x20 DUP11 ADD SWAP10 POP POP PUSH1 0x1 DUP2 ADD SWAP1 POP PUSH2 0x16CC JUMP JUMPDEST POP DUP3 SWAP8 POP DUP8 SWAP6 POP POP POP POP POP POP SWAP3 SWAP2 POP POP JUMP JUMPDEST PUSH1 0x0 PUSH1 0x20 DUP3 ADD SWAP1 POP DUP2 DUP2 SUB PUSH1 0x0 DUP4 ADD MSTORE PUSH2 0x1730 DUP2 DUP5 PUSH2 0x16A1 JUMP JUMPDEST SWAP1 POP SWAP3 SWAP2 POP POP JUMP JUMPDEST PUSH1 0x0 PUSH20 0xFFFFFFFFFFFFFFFFFFFFFFFFFFFFFFFFFFFFFFFF DUP3 AND SWAP1 POP SWAP2 SWAP1 POP JUMP JUMPDEST PUSH1 0x0 PUSH2 0x1763 DUP3 PUSH2 0x1738 JUMP JUMPDEST SWAP1 POP SWAP2 SWAP1 POP JUMP JUMPDEST PUSH2 0x1773 DUP2 PUSH2 0x1758 JUMP JUMPDEST DUP2 EQ PUSH2 0x177E JUMPI PUSH1 0x0 DUP1 REVERT JUMPDEST POP JUMP JUMPDEST PUSH1 0x0 DUP2 CALLDATALOAD SWAP1 POP PUSH2 0x1790 DUP2 PUSH2 0x176A JUMP JUMPDEST SWAP3 SWAP2 POP POP JUMP JUMPDEST PUSH1 0x0 DUP1 PUSH1 0x40 DUP4 DUP6 SUB SLT ISZERO PUSH2 0x17AD JUMPI PUSH2 0x17AC PUSH2 0x124F JUMP JUMPDEST JUMPDEST PUSH1 0x0 PUSH2 0x17BB DUP6 DUP3 DUP7 ADD PUSH2 0x127A JUMP JUMPDEST SWAP3 POP POP PUSH1 0x20 PUSH2 0x17CC DUP6 DUP3 DUP7 ADD PUSH2 0x1781 JUMP JUMPDEST SWAP2 POP POP SWAP3 POP SWAP3 SWAP1 POP JUMP JUMPDEST PUSH2 0x17DF DUP2 PUSH2 0x14E8 JUMP JUMPDEST DUP3 MSTORE POP POP JUMP JUMPDEST PUSH1 0x0 PUSH1 0x20 DUP3 ADD SWAP1 POP PUSH2 0x17FA PUSH1 0x0 DUP4 ADD DUP5 PUSH2 0x17D6 JUMP JUMPDEST SWAP3 SWAP2 POP POP JUMP JUMPDEST PUSH1 0x0 DUP2 MLOAD SWAP1 POP SWAP2 SWAP1 POP JUMP JUMPDEST PUSH1 0x0 DUP3 DUP3 MSTORE PUSH1 0x20 DUP3 ADD SWAP1 POP SWAP3 SWAP2 POP POP JUMP JUMPDEST PUSH1 0x0 DUP2 SWAP1 POP PUSH1 0x20 DUP3 ADD SWAP1 POP SWAP2 SWAP1 POP JUMP JUMPDEST PUSH2 0x1835 DUP2 PUSH2 0x1259 JUMP JUMPDEST DUP3 MSTORE POP POP JUMP JUMPDEST PUSH1 0x0 PUSH2 0x1847 DUP4 DUP4 PUSH2 0x182C JUMP JUMPDEST PUSH1 0x20 DUP4 ADD SWAP1 POP SWAP3 SWAP2 POP POP JUMP JUMPDEST PUSH1 0x0 PUSH1 0x20 DUP3 ADD SWAP1 POP SWAP2 SWAP1 POP JUMP JUMPDEST PUSH1 0x0 PUSH2 0x186B DUP3 PUSH2 0x1800 JUMP JUMPDEST PUSH2 0x1875 DUP2 DUP6 PUSH2 0x180B JUMP JUMPDEST SWAP4 POP PUSH2 0x1880 DUP4 PUSH2 0x181C JUMP JUMPDEST DUP1 PUSH1 0x0 JUMPDEST DUP4 DUP2 LT ISZERO PUSH2 0x18B1 JUMPI DUP2 MLOAD PUSH2 0x1898 DUP9 DUP3 PUSH2 0x183B JUMP JUMPDEST SWAP8 POP PUSH2 0x18A3 DUP4 PUSH2 0x1853 JUMP JUMPDEST SWAP3 POP POP PUSH1 0x1 DUP2 ADD SWAP1 POP PUSH2 0x1884 JUMP JUMPDEST POP DUP6 SWAP4 POP POP POP POP SWAP3 SWAP2 POP POP JUMP JUMPDEST PUSH1 0x0 PUSH1 0x20 DUP3 ADD SWAP1 POP DUP2 DUP2 SUB PUSH1 0x0 DUP4 ADD MSTORE PUSH2 0x18D8 DUP2 DUP5 PUSH2 0x1860 JUMP JUMPDEST SWAP1 POP SWAP3 SWAP2 POP POP JUMP JUMPDEST PUSH1 0x0 DUP1 PUSH1 0x40 DUP4 DUP6 SUB SLT ISZERO PUSH2 0x18F7 JUMPI PUSH2 0x18F6 PUSH2 0x124F JUMP JUMPDEST JUMPDEST PUSH1 0x0 PUSH2 0x1905 DUP6 DUP3 DUP7 ADD PUSH2 0x127A JUMP JUMPDEST SWAP3 POP POP PUSH1 0x20 PUSH2 0x1916 DUP6 DUP3 DUP7 ADD PUSH2 0x127A JUMP JUMPDEST SWAP2 POP POP SWAP3 POP SWAP3 SWAP1 POP JUMP JUMPDEST PUSH1 0x0 DUP3 DUP3 MSTORE PUSH1 0x20 DUP3 ADD SWAP1 POP SWAP3 SWAP2 POP POP JUMP JUMPDEST PUSH1 0x0 PUSH2 0x193C DUP3 PUSH2 0x1601 JUMP JUMPDEST PUSH2 0x1946 DUP2 DUP6 PUSH2 0x1920 JUMP JUMPDEST SWAP4 POP PUSH2 0x1956 DUP2 DUP6 PUSH1 0x20 DUP7 ADD PUSH2 0x161D JUMP JUMPDEST PUSH2 0x195F DUP2 PUSH2 0x12C6 JUMP JUMPDEST DUP5 ADD SWAP2 POP POP SWAP3 SWAP2 POP POP JUMP JUMPDEST PUSH1 0x0 PUSH8 0xFFFFFFFFFFFFFFFF DUP3 AND SWAP1 POP SWAP2 SWAP1 POP JUMP JUMPDEST PUSH2 0x1987 DUP2 PUSH2 0x196A JUMP JUMPDEST DUP3 MSTORE POP POP JUMP JUMPDEST PUSH1 0x0 PUSH1 0xC0 DUP3 ADD SWAP1 POP DUP2 DUP2 SUB PUSH1 0x0 DUP4 ADD MSTORE PUSH2 0x19A7 DUP2 DUP10 PUSH2 0x1931 JUMP JUMPDEST SWAP1 POP PUSH2 0x19B6 PUSH1 0x20 DUP4 ADD DUP9 PUSH2 0x197E JUMP JUMPDEST PUSH2 0x19C3 PUSH1 0x40 DUP4 ADD DUP8 PUSH2 0x197E JUMP JUMPDEST PUSH2 0x19D0 PUSH1 0x60 DUP4 ADD DUP7 PUSH2 0x17D6 JUMP JUMPDEST PUSH2 0x19DD PUSH1 0x80 DUP4 ADD DUP6 PUSH2 0x17D6 JUMP JUMPDEST PUSH2 0x19EA PUSH1 0xA0 DUP4 ADD DUP5 PUSH2 0x17D6 JUMP JUMPDEST SWAP8 SWAP7 POP POP POP POP POP POP POP JUMP JUMPDEST PUSH2 0x19FE DUP2 PUSH2 0x196A JUMP JUMPDEST DUP2 EQ PUSH2 0x1A09 JUMPI PUSH1 0x0 DUP1 REVERT JUMPDEST POP JUMP JUMPDEST PUSH1 0x0 DUP2 CALLDATALOAD SWAP1 POP PUSH2 0x1A1B DUP2 PUSH2 0x19F5 JUMP JUMPDEST SWAP3 SWAP2 POP POP JUMP JUMPDEST PUSH1 0x0 DUP1 PUSH1 0x0 PUSH1 0x60 DUP5 DUP7 SUB SLT ISZERO PUSH2 0x1A3A JUMPI PUSH2 0x1A39 PUSH2 0x124F JUMP JUMPDEST JUMPDEST PUSH1 0x0 PUSH2 0x1A48 DUP7 DUP3 DUP8 ADD PUSH2 0x127A JUMP JUMPDEST SWAP4 POP POP PUSH1 0x20 PUSH2 0x1A59 DUP7 DUP3 DUP8 ADD PUSH2 0x1A0C JUMP JUMPDEST SWAP3 POP POP PUSH1 0x40 PUSH2 0x1A6A DUP7 DUP3 DUP8 ADD PUSH2 0x1A0C JUMP JUMPDEST SWAP2 POP POP SWAP3 POP SWAP3 POP SWAP3 JUMP JUMPDEST PUSH2 0x1A7D DUP2 PUSH2 0x1758 JUMP JUMPDEST DUP3 MSTORE POP POP JUMP JUMPDEST PUSH1 0x0 PUSH1 0x20 DUP3 ADD SWAP1 POP PUSH2 0x1A98 PUSH1 0x0 DUP4 ADD DUP5 PUSH2 0x1A74 JUMP JUMPDEST SWAP3 SWAP2 POP POP JUMP JUMPDEST PUSH32 0x4E656564203E3D20322063616E64696461746573000000000000000000000000 PUSH1 0x0 DUP3 ADD MSTORE POP JUMP JUMPDEST PUSH1 0x0 PUSH2 0x1AD4 PUSH1 0x14 DUP4 PUSH2 0x1920 JUMP JUMPDEST SWAP2 POP PUSH2 0x1ADF DUP3 PUSH2 0x1A9E JUMP JUMPDEST PUSH1 0x20 DUP3 ADD SWAP1 POP SWAP2 SWAP1 POP JUMP JUMPDEST PUSH1 0x0 PUSH1 0x20 DUP3 ADD SWAP1 POP DUP2 DUP2 SUB PUSH1 0x0 DUP4 ADD MSTORE PUSH2 0x1B03 DUP2 PUSH2 0x1AC7 JUMP JUMPDEST SWAP1 POP SWAP2 SWAP1 POP JUMP JUMPDEST PUSH32 0x4E487B7100000000000000000000000000000000000000000000000000000000 PUSH1 0x0 MSTORE PUSH1 0x11 PUSH1 0x4 MSTORE PUSH1 0x24 PUSH1 0x0 REVERT JUMPDEST PUSH1 0x0 PUSH2 0x1B44 DUP3 PUSH2 0x1259 JUMP JUMPDEST SWAP2 POP PUSH32 0xFFFFFFFFFFFFFFFFFFFFFFFFFFFFFFFFFFFFFFFFFFFFFFFFFFFFFFFFFFFFFFFF DUP3 SUB PUSH2 0x1B76 JUMPI PUSH2 0x1B75 PUSH2 0x1B0A JUMP JUMPDEST JUMPDEST PUSH1 0x1 DUP3 ADD SWAP1 POP SWAP2 SWAP1 POP JUMP JUMPDEST PUSH32 0x4E487B7100000000000000000000000000000000000000000000000000000000 PUSH1 0x0 MSTORE PUSH1 0x22 PUSH1 0x4 MSTORE PUSH1 0x24 PUSH1 0x0 REVERT JUMPDEST PUSH1 0x0 PUSH1 0x2 DUP3 DIV SWAP1 POP PUSH1 0x1 DUP3 AND DUP1 PUSH2 0x1BC8 JUMPI PUSH1 0x7F DUP3 AND SWAP2 POP JUMPDEST PUSH1 0x20 DUP3 LT DUP2 SUB PUSH2 0x1BDB JUMPI PUSH2 0x1BDA PUSH2 0x1B81 JUMP JUMPDEST JUMPDEST POP SWAP2 SWAP1 POP JUMP JUMPDEST PUSH1 0x0 DUP2 SWAP1 POP DUP2 PUSH1 0x0 MSTORE PUSH1 0x20 PUSH1 0x0 KECCAK256 SWAP1 POP SWAP2 SWAP1 POP JUMP JUMPDEST PUSH1 0x0 PUSH1 0x20 PUSH1 0x1F DUP4 ADD DIV SWAP1 POP SWAP2 SWAP1 POP JUMP JUMPDEST PUSH1 0x0 DUP3 DUP3 SHL SWAP1 POP SWAP3 SWAP2 POP POP JUMP JUMPDEST PUSH1 0x0 PUSH1 0x8 DUP4 MUL PUSH2 0x1C43 PUSH32 0xFFFFFFFFFFFFFFFFFFFFFFFFFFFFFFFFFFFFFFFFFFFFFFFFFFFFFFFFFFFFFFFF DUP3 PUSH2 0x1C06 JUMP JUMPDEST PUSH2 0x1C4D DUP7 DUP4 PUSH2 0x1C06 JUMP JUMPDEST SWAP6 POP DUP1 NOT DUP5 AND SWAP4 POP DUP1 DUP7 AND DUP5 OR SWAP3 POP POP POP SWAP4 SWAP3 POP POP POP JUMP JUMPDEST PUSH1 0x0 DUP2 SWAP1 POP SWAP2 SWAP1 POP JUMP JUMPDEST PUSH1 0x0 PUSH2 0x1C8A PUSH2 0x1C85 PUSH2 0x1C80 DUP5 PUSH2 0x1259 JUMP JUMPDEST PUSH2 0x1C65 JUMP JUMPDEST PUSH2 0x1259 JUMP JUMPDEST SWAP1 POP SWAP2 SWAP1 POP JUMP JUMPDEST PUSH1 0x0 DUP2 SWAP1 POP SWAP2 SWAP1 POP JUMP JUMPDEST PUSH2 0x1CA4 DUP4 PUSH2 0x1C6F JUMP JUMPDEST PUSH2 0x1CB8 PUSH2 0x1CB0 DUP3 PUSH2 0x1C91 JUMP JUMPDEST DUP5 DUP5 SLOAD PUSH2 0x1C13 JUMP JUMPDEST DUP3 SSTORE POP POP POP POP JUMP JUMPDEST PUSH1 0x0 SWAP1 JUMP JUMPDEST PUSH2 0x1CCD PUSH2 0x1CC0 JUMP JUMPDEST PUSH2 0x1CD8 DUP2 DUP5 DUP5 PUSH2 0x1C9B JUMP JUMPDEST POP POP POP JUMP JUMPDEST JUMPDEST DUP2 DUP2 LT ISZERO PUSH2 0x1CFC JUMPI PUSH2 0x1CF1 PUSH1 0x0 DUP3 PUSH2 0x1CC5 JUMP JUMPDEST PUSH1 0x1 DUP2 ADD SWAP1 POP PUSH2 0x1CDE JUMP JUMPDEST POP POP JUMP JUMPDEST PUSH1 0x1F DUP3 GT ISZERO PUSH2 0x1D41 JUMPI PUSH2 0x1D12 DUP2 PUSH2 0x1BE1 JUMP JUMPDEST PUSH2 0x1D1B DUP5 PUSH2 0x1BF6 JUMP JUMPDEST DUP2 ADD PUSH1 0x20 DUP6 LT ISZERO PUSH2 0x1D2A JUMPI DUP2 SWAP1 POP JUMPDEST PUSH2 0x1D3E PUSH2 0x1D36 DUP6 PUSH2 0x1BF6 JUMP JUMPDEST DUP4 ADD DUP3 PUSH2 0x1CDD JUMP JUMPDEST POP POP JUMPDEST POP POP POP JUMP JUMPDEST PUSH1 0x0 DUP3 DUP3 SHR SWAP1 POP SWAP3 SWAP2 POP POP JUMP JUMPDEST PUSH1 0x0 PUSH2 0x1D64 PUSH1 0x0 NOT DUP5 PUSH1 0x8 MUL PUSH2 0x1D46 JUMP JUMPDEST NOT DUP1 DUP4 AND SWAP2 POP POP SWAP3 SWAP2 POP POP JUMP JUMPDEST PUSH1 0x0 PUSH2 0x1D7D DUP4 DUP4 PUSH2 0x1D53 JUMP JUMPDEST SWAP2 POP DUP3 PUSH1 0x2 MUL DUP3 OR SWAP1 POP SWAP3 SWAP2 POP POP JUMP JUMPDEST PUSH2 0x1D96 DUP3 PUSH2 0x1601 JUMP JUMPDEST PUSH8 0xFFFFFFFFFFFFFFFF DUP2 GT ISZERO PUSH2 0x1DAF JUMPI PUSH2 0x1DAE PUSH2 0x12D7 JUMP JUMPDEST JUMPDEST PUSH2 0x1DB9 DUP3 SLOAD PUSH2 0x1BB0 JUMP JUMPDEST PUSH2 0x1DC4 DUP3 DUP3 DUP6 PUSH2 0x1D00 JUMP JUMPDEST PUSH1 0x0 PUSH1 0x20 SWAP1 POP PUSH1 0x1F DUP4 GT PUSH1 0x1 DUP2 EQ PUSH2 0x1DF7 JUMPI PUSH1 0x0 DUP5 ISZERO PUSH2 0x1DE5 JUMPI DUP3 DUP8 ADD MLOAD SWAP1 POP JUMPDEST PUSH2 0x1DEF DUP6 DUP3 PUSH2 0x1D71 JUMP JUMPDEST DUP7 SSTORE POP PUSH2 0x1E57 JUMP JUMPDEST PUSH1 0x1F NOT DUP5 AND PUSH2 0x1E05 DUP7 PUSH2 0x1BE1 JUMP JUMPDEST PUSH1 0x0 JUMPDEST DUP3 DUP2 LT ISZERO PUSH2 0x1E2D JUMPI DUP5 DUP10 ADD MLOAD DUP3 SSTORE PUSH1 0x1 DUP3 ADD SWAP2 POP PUSH1 0x20 DUP6 ADD SWAP5 POP PUSH1 0x20 DUP2 ADD SWAP1 POP PUSH2 0x1E08 JUMP JUMPDEST DUP7 DUP4 LT ISZERO PUSH2 0x1E4A JUMPI DUP5 DUP10 ADD MLOAD PUSH2 0x1E46 PUSH1 0x1F DUP10 AND DUP3 PUSH2 0x1D53 JUMP JUMPDEST DUP4 SSTORE POP JUMPDEST PUSH1 0x1 PUSH1 0x2 DUP9 MUL ADD DUP9 SSTORE POP POP POP JUMPDEST POP POP POP POP POP POP JUMP JUMPDEST PUSH1 0x0 PUSH1 0x60 DUP3 ADD SWAP1 POP DUP2 DUP2 SUB PUSH1 0x0 DUP4 ADD MSTORE PUSH2 0x1E79 DUP2 DUP7 PUSH2 0x1931 JUMP JUMPDEST SWAP1 POP DUP2 DUP2 SUB PUSH1 0x20 DUP4 ADD MSTORE PUSH2 0x1E8D DUP2 DUP6 PUSH2 0x16A1 JUMP JUMPDEST SWAP1 POP PUSH2 0x1E9C PUSH1 0x40 DUP4 ADD DUP5 PUSH2 0x17D6 JUMP JUMPDEST SWAP5 SWAP4 POP POP POP POP JUMP JUMPDEST PUSH32 0x4E487B7100000000000000000000000000000000000000000000000000000000 PUSH1 0x0 MSTORE PUSH1 0x32 PUSH1 0x4 MSTORE PUSH1 0x24 PUSH1 0x0 REVERT JUMPDEST PUSH1 0x0 PUSH2 0x1EDE DUP3 PUSH2 0x1259 JUMP JUMPDEST SWAP2 POP PUSH2 0x1EE9 DUP4 PUSH2 0x1259 JUMP JUMPDEST SWAP3 POP DUP3 DUP3 ADD SWAP1 POP DUP1 DUP3 GT ISZERO PUSH2 0x1F01 JUMPI PUSH2 0x1F00 PUSH2 0x1B0A JUMP JUMPDEST JUMPDEST SWAP3 SWAP2 POP POP JUMP JUMPDEST PUSH32 0x4261642077696E646F7700000000000000000000000000000000000000000000 PUSH1 0x0 DUP3 ADD MSTORE POP JUMP JUMPDEST PUSH1 0x0 PUSH2 0x1F3D PUSH1 0xA DUP4 PUSH2 0x1920 JUMP JUMPDEST SWAP2 POP PUSH2 0x1F48 DUP3 PUSH2 0x1F07 JUMP JUMPDEST PUSH1 0x20 DUP3 ADD SWAP1 POP SWAP2 SWAP1 POP JUMP JUMPDEST PUSH1 0x0 PUSH1 0x20 DUP3 ADD SWAP1 POP DUP2 DUP2 SUB PUSH1 0x0 DUP4 ADD MSTORE PUSH2 0x1F6C DUP2 PUSH2 0x1F30 JUMP JUMPDEST SWAP1 POP SWAP2 SWAP1 POP JUMP JUMPDEST PUSH1 0x0 PUSH2 0x1F8E PUSH2 0x1F89 PUSH2 0x1F84 DUP5 PUSH2 0x196A JUMP JUMPDEST PUSH2 0x1C65 JUMP JUMPDEST PUSH2 0x1259 JUMP JUMPDEST SWAP1 POP SWAP2 SWAP1 POP JUMP JUMPDEST PUSH2 0x1F9E DUP2 PUSH2 0x1F73 JUMP JUMPDEST DUP3 MSTORE POP POP JUMP JUMPDEST PUSH1 0x0 PUSH1 0x40 DUP3 ADD SWAP1 POP PUSH2 0x1FB9 PUSH1 0x0 DUP4 ADD DUP6 PUSH2 0x1F95 JUMP JUMPDEST PUSH2 0x1FC6 PUSH1 0x20 DUP4 ADD DUP5 PUSH2 0x1F95 JUMP JUMPDEST SWAP4 SWAP3 POP POP POP JUMP INVALID LOG2 PUSH5 0x6970667358 0x22 SLT KECCAK256 DUP9 0xF8 DUP4 0xAA CALLDATASIZE BYTE 0xE1 SDIV 0xD9 LOG2 STATICCALL NOT GAS 0xAB 0xCD DUP8 JUMPDEST 0xCF 0xE2 EQ MSTORE8 0xD7 SWAP6 NUMBER 0xD8 0x28 CALLCODE 0xAE JUMPI LT PUSH31 0xCB64736F6C6343000814003300000000000000000000000000000000000000 "},"methodIdentifiers":{"admin()":"f851a440","createElection(string,string[],bool)":"39f69bcf","electionCount()":"997d2830","endElection(uint256)":"9c98bcbb","getCandidates(uint256)":"3e39a7a5","getElectionMeta(uint256)":"ed950a5a","getTallies(uint256)":"6ce0a9e0","getWinner(uint256)":"4129b2c9","hasVoted(uint256,address)":"43859632","pauseElection(uint256)":"2e4ecae1","startElection(uint256,uint64,uint64)":"ed9cccb4","vote(uint256,uint256)":"b384abef"}}}}}