{
  "_format": "hh-sol-artifact-1",
  "contractName": "Voting",
  "sourceName": "contracts/votingSystem.sol",
  "abi": [
    {
      "inputs": [
        {
          "internalType": "string[]",
          "name": "candidateNames",
          "type": "string[]"
        }
      ],
      "stateMutability": "nonpayable",
      "type": "constructor"
    },
    {
      "inputs": [
        {
          "internalType": "uint256",
          "name": "",
          "type": "uint256"
        }
      ],
      "name": "candidates",
      "outputs": [
        {
          "internalType": "string",
          "name": "",
          "type": "string"
        }
      ],
      "stateMutability": "view",
      "type": "function"
    },
    {
      "inputs": [],
      "name": "getAllCandidates",
      "outputs": [
        {
          "internalType": "string[]",
          "name": "",
          "type": "string[]"
        }
      ],
      "stateMutability": "view",
      "type": "function"
    },
    {
      "inputs": [],
      "name": "getWinner",
      "outputs": [
        {
          "internalType": "string",
          "name": "winner",
          "type": "string"
        }
      ],
      "stateMutability": "view",
      "type": "function"
    },
    {
      "inputs": [
        {
          "internalType": "address",
          "name": "",
          "type": "address"
        }
      ],
      "name": "hasVoted",
      "outputs": [
        {
          "internalType": "bool",
          "name": "",
          "type": "bool"
        }
      ],
      "stateMutability": "view",
      "type": "function"
    },
    {
      "inputs": [
        {
          "internalType": "string",
          "name": "candidate",
          "type": "string"
        }
      ],
      "name": "totalVotesFor",
      "outputs": [
        {
          "internalType": "uint256",
          "name": "",
          "type": "uint256"
        }
      ],
      "stateMutability": "view",
      "type": "function"
    },
    {
      "inputs": [
        {
          "internalType": "string",
          "name": "candidate",
          "type": "string"
        }
      ],
      "name": "validCandidate",
      "outputs": [
        {
          "internalType": "bool",
          "name": "",
          "type": "bool"
        }
      ],
      "stateMutability": "view",
      "type": "function"
    },
    {
      "inputs": [
        {
          "internalType": "string",
          "name": "candidate",
          "type": "string"
        }
      ],
      "name": "vote",
      "outputs": [],
      "stateMutability": "nonpayable",
      "type": "function"
    },
    {
      "inputs": [
        {
          "internalType": "string",
          "name": "",
          "type": "string"
        }
      ],
      "name": "votesReceived",
      "outputs": [
        {
          "internalType": "uint256",
          "name": "",
          "type": "uint256"
        }
      ],
      "stateMutability": "view",
      "type": "function"
    }
  ],
  "bytecode": "0x60806040523480156200001157600080fd5b5060405162001852380380620018528339818101604052810190620000379190620003d3565b80600090805190602001906200004f92919062000057565b505062000756565b828054828255906000526020600020908101928215620000a4579160200282015b82811115620000a35782518290816200009291906200066f565b509160200191906001019062000078565b5b509050620000b39190620000b7565b5090565b5b80821115620000db5760008181620000d19190620000df565b50600101620000b8565b5090565b508054620000ed906200045e565b6000825580601f1062000101575062000122565b601f01602090049060005260206000209081019062000121919062000125565b5b50565b5b808211156200014057600081600090555060010162000126565b5090565b6000604051905090565b600080fd5b600080fd5b600080fd5b6000601f19601f8301169050919050565b7f4e487b7100000000000000000000000000000000000000000000000000000000600052604160045260246000fd5b620001a8826200015d565b810181811067ffffffffffffffff82111715620001ca57620001c96200016e565b5b80604052505050565b6000620001df62000144565b9050620001ed82826200019d565b919050565b600067ffffffffffffffff82111562000210576200020f6200016e565b5b602082029050602081019050919050565b600080fd5b600080fd5b600067ffffffffffffffff8211156200024957620002486200016e565b5b62000254826200015d565b9050602081019050919050565b60005b838110156200028157808201518184015260208101905062000264565b60008484015250505050565b6000620002a46200029e846200022b565b620001d3565b905082815260208101848484011115620002c357620002c262000226565b5b620002d084828562000261565b509392505050565b600082601f830112620002f057620002ef62000158565b5b8151620003028482602086016200028d565b91505092915050565b6000620003226200031c84620001f2565b620001d3565b9050808382526020820190506020840283018581111562000348576200034762000221565b5b835b818110156200039657805167ffffffffffffffff81111562000371576200037062000158565b5b808601620003808982620002d8565b855260208501945050506020810190506200034a565b5050509392505050565b600082601f830112620003b857620003b762000158565b5b8151620003ca8482602086016200030b565b91505092915050565b600060208284031215620003ec57620003eb6200014e565b5b600082015167ffffffffffffffff8111156200040d576200040c62000153565b5b6200041b84828501620003a0565b91505092915050565b600081519050919050565b7f4e487b7100000000000000000000000000000000000000000000000000000000600052602260045260246000fd5b600060028204905060018216806200047757607f821691505b6020821081036200048d576200048c6200042f565b5b50919050565b60008190508160005260206000209050919050565b60006020601f8301049050919050565b600082821b905092915050565b600060088302620004f77fffffffffffffffffffffffffffffffffffffffffffffffffffffffffffffffff82620004b8565b620005038683620004b8565b95508019841693508086168417925050509392505050565b6000819050919050565b6000819050919050565b6000620005506200054a62000544846200051b565b62000525565b6200051b565b9050919050565b6000819050919050565b6200056c836200052f565b620005846200057b8262000557565b848454620004c5565b825550505050565b600090565b6200059b6200058c565b620005a881848462000561565b505050565b5b81811015620005d057620005c460008262000591565b600181019050620005ae565b5050565b601f8211156200061f57620005e98162000493565b620005f484620004a8565b8101602085101562000604578190505b6200061c6200061385620004a8565b830182620005ad565b50505b505050565b600082821c905092915050565b6000620006446000198460080262000624565b1980831691505092915050565b60006200065f838362000631565b9150826002028217905092915050565b6200067a8262000424565b67ffffffffffffffff8111156200069657620006956200016e565b5b620006a282546200045e565b620006af828285620005d4565b600060209050601f831160018114620006e75760008415620006d2578287015190505b620006de858262000651565b8655506200074e565b601f198416620006f78662000493565b60005b828110156200072157848901518255600182019150602085019450602081019050620006fa565b868310156200074157848901516200073d601f89168262000631565b8355505b6001600288020188555050505b505050505050565b6110ec80620007666000396000f3fe608060405234801561001057600080fd5b50600436106100885760003560e01c8063538c91b21161005b578063538c91b21461013b5780638d4b44d91461016b5780638e7ea5b21461019b578063fc36e15b146101b957610088565b806309eef43e1461008d5780632e6997fe146100bd5780633477ee2e146100db5780634a3bf3771461010b575b600080fd5b6100a760048036038101906100a291906108e8565b6101d5565b6040516100b49190610930565b60405180910390f35b6100c56101f5565b6040516100d29190610a9d565b60405180910390f35b6100f560048036038101906100f09190610af5565b6102ce565b6040516101029190610b6c565b60405180910390f35b61012560048036038101906101209190610cc3565b61037a565b6040516101329190610d1b565b60405180910390f35b61015560048036038101906101509190610cc3565b6103ea565b6040516101629190610930565b60405180910390f35b61018560048036038101906101809190610cc3565b610497565b6040516101929190610d1b565b60405180910390f35b6101a36104c5565b6040516101b09190610b6c565b60405180910390f35b6101d360048036038101906101ce9190610cc3565b610711565b005b60026020528060005260406000206000915054906101000a900460ff1681565b60606000805480602002602001604051908101604052809291908181526020016000905b828210156102c557838290600052602060002001805461023890610d65565b80601f016020809104026020016040519081016040528092919081815260200182805461026490610d65565b80156102b15780601f10610286576101008083540402835291602001916102b1565b820191906000526020600020905b81548152906001019060200180831161029457829003601f168201915b505050505081526020019060010190610219565b50505050905090565b600081815481106102de57600080fd5b9060005260206000200160009150905080546102f990610d65565b80601f016020809104026020016040519081016040528092919081815260200182805461032590610d65565b80156103725780601f1061034757610100808354040283529160200191610372565b820191906000526020600020905b81548152906001019060200180831161035557829003601f168201915b505050505081565b6000610385826103ea565b6103c4576040517f08c379a00000000000000000000000000000000000000000000000000000000081526004016103bb90610de2565b60405180910390fd5b6001826040516103d49190610e3e565b9081526020016040518091039020549050919050565b600080600090505b60008054905081101561048c57826040516020016104109190610e3e565b604051602081830303815290604052805190602001206000828154811061043a57610439610e55565b5b906000526020600020016040516020016104549190610f1c565b6040516020818303038152906040528051906020012003610479576001915050610492565b808061048490610f62565b9150506103f2565b50600090505b919050565b6001818051602081018201805184825260208301602085012081835280955050505050506000915090505481565b6060600080805490501161050e576040517f08c379a000000000000000000000000000000000000000000000000000000000815260040161050590610ff6565b60405180910390fd5b6000808060008154811061052557610524610e55565b5b90600052602060002001805461053a90610d65565b80601f016020809104026020016040519081016040528092919081815260200182805461056690610d65565b80156105b35780601f10610588576101008083540402835291602001916105b3565b820191906000526020600020905b81548152906001019060200180831161059657829003601f168201915b5050505050905060005b60008054905081101561070857826001600083815481106105e1576105e0610e55565b5b906000526020600020016040516105f89190610f1c565b90815260200160405180910390205411156106f55760016000828154811061062357610622610e55565b5b9060005260206000200160405161063a9190610f1c565b90815260200160405180910390205492506000818154811061065f5761065e610e55565b5b90600052602060002001805461067490610d65565b80601f01602080910402602001604051908101604052809291908181526020018280546106a090610d65565b80156106ed5780601f106106c2576101008083540402835291602001916106ed565b820191906000526020600020905b8154815290600101906020018083116106d057829003601f168201915b505050505091505b808061070090610f62565b9150506105bd565b50809250505090565b600260003373ffffffffffffffffffffffffffffffffffffffff1673ffffffffffffffffffffffffffffffffffffffff16815260200190815260200160002060009054906101000a900460ff161561079e576040517f08c379a000000000000000000000000000000000000000000000000000000000815260040161079590611062565b60405180910390fd5b6107a7816103ea565b6107e6576040517f08c379a00000000000000000000000000000000000000000000000000000000081526004016107dd90610de2565b60405180910390fd5b600180826040516107f79190610e3e565b908152602001604051809103902060008282546108149190611082565b925050819055506001600260003373ffffffffffffffffffffffffffffffffffffffff1673ffffffffffffffffffffffffffffffffffffffff16815260200190815260200160002060006101000a81548160ff02191690831515021790555050565b6000604051905090565b600080fd5b600080fd5b600073ffffffffffffffffffffffffffffffffffffffff82169050919050565b60006108b58261088a565b9050919050565b6108c5816108aa565b81146108d057600080fd5b50565b6000813590506108e2816108bc565b92915050565b6000602082840312156108fe576108fd610880565b5b600061090c848285016108d3565b91505092915050565b60008115159050919050565b61092a81610915565b82525050565b60006020820190506109456000830184610921565b92915050565b600081519050919050565b600082825260208201905092915050565b6000819050602082019050919050565b600081519050919050565b600082825260208201905092915050565b60005b838110156109b1578082015181840152602081019050610996565b60008484015250505050565b6000601f19601f8301169050919050565b60006109d982610977565b6109e38185610982565b93506109f3818560208601610993565b6109fc816109bd565b840191505092915050565b6000610a1383836109ce565b905092915050565b6000602082019050919050565b6000610a338261094b565b610a3d8185610956565b935083602082028501610a4f85610967565b8060005b85811015610a8b5784840389528151610a6c8582610a07565b9450610a7783610a1b565b925060208a01995050600181019050610a53565b50829750879550505050505092915050565b60006020820190508181036000830152610ab78184610a28565b905092915050565b6000819050919050565b610ad281610abf565b8114610add57600080fd5b50565b600081359050610aef81610ac9565b92915050565b600060208284031215610b0b57610b0a610880565b5b6000610b1984828501610ae0565b91505092915050565b600082825260208201905092915050565b6000610b3e82610977565b610b488185610b22565b9350610b58818560208601610993565b610b61816109bd565b840191505092915050565b60006020820190508181036000830152610b868184610b33565b905092915050565b600080fd5b600080fd5b7f4e487b7100000000000000000000000000000000000000000000000000000000600052604160045260246000fd5b610bd0826109bd565b810181811067ffffffffffffffff82111715610bef57610bee610b98565b5b80604052505050565b6000610c02610876565b9050610c0e8282610bc7565b919050565b600067ffffffffffffffff821115610c2e57610c2d610b98565b5b610c37826109bd565b9050602081019050919050565b82818337600083830152505050565b6000610c66610c6184610c13565b610bf8565b905082815260208101848484011115610c8257610c81610b93565b5b610c8d848285610c44565b509392505050565b600082601f830112610caa57610ca9610b8e565b5b8135610cba848260208601610c53565b91505092915050565b600060208284031215610cd957610cd8610880565b5b600082013567ffffffffffffffff811115610cf757610cf6610885565b5b610d0384828501610c95565b91505092915050565b610d1581610abf565b82525050565b6000602082019050610d306000830184610d0c565b92915050565b7f4e487b7100000000000000000000000000000000000000000000000000000000600052602260045260246000fd5b60006002820490506001821680610d7d57607f821691505b602082108103610d9057610d8f610d36565b5b50919050565b7f496e76616c69642063616e646964617465210000000000000000000000000000600082015250565b6000610dcc601283610b22565b9150610dd782610d96565b602082019050919050565b60006020820190508181036000830152610dfb81610dbf565b9050919050565b600081905092915050565b6000610e1882610977565b610e228185610e02565b9350610e32818560208601610993565b80840191505092915050565b6000610e4a8284610e0d565b915081905092915050565b7f4e487b7100000000000000000000000000000000000000000000000000000000600052603260045260246000fd5b60008190508160005260206000209050919050565b60008154610ea681610d65565b610eb08186610e02565b94506001821660008114610ecb5760018114610ee057610f13565b60ff1983168652811515820286019350610f13565b610ee985610e84565b60005b83811015610f0b57815481890152600182019150602081019050610eec565b838801955050505b50505092915050565b6000610f288284610e99565b915081905092915050565b7f4e487b7100000000000000000000000000000000000000000000000000000000600052601160045260246000fd5b6000610f6d82610abf565b91507fffffffffffffffffffffffffffffffffffffffffffffffffffffffffffffffff8203610f9f57610f9e610f33565b5b600182019050919050565b7f4e6f2063616e6469646174657320617661696c61626c65000000000000000000600082015250565b6000610fe0601783610b22565b9150610feb82610faa565b602082019050919050565b6000602082019050818103600083015261100f81610fd3565b9050919050565b7f596f75206861766520616c726561647920766f74656421000000000000000000600082015250565b600061104c601783610b22565b915061105782611016565b602082019050919050565b6000602082019050818103600083015261107b8161103f565b9050919050565b600061108d82610abf565b915061109883610abf565b92508282019050808211156110b0576110af610f33565b5b9291505056fea26469706673582212201b3b3cf750ba368a8ff40d516fac7f7fe2737b478507e72bb0f817bed92d24a864736f6c63430008140033",
  "linkReferences": {},
  "deployedLinkReferences": {}
}