{
  "_format": "hh-sol-artifact-1",
  "contractName": "VotingFactory",
  "sourceName": "contracts/votingSystem.sol",
  "abi": [
    {
      "inputs": [
        {
          "internalType": "address",
          "name": "_admin",
          "type": "address"
        }
      ],
      "stateMutability": "nonpayable",
      "type": "constructor"
    },
    {
      "inputs": [],
      "name": "AlreadyVoted",
      "type": "error"
    },
    {
      "inputs": [],
      "name": "InvalidCandidate",
      "type": "error"
    },
    {
      "inputs": [],
      "name": "InvalidElection",
      "type": "error"
    },
    {
      "inputs": [],
      "name": "NotActive",
      "type": "error"
    },
    {
      "inputs": [],
      "name": "OnlyAdmin",
      "type": "error"
    },
    {
      "inputs": [],
      "name": "VotingClosed",
      "type": "error"
    },
    {
      "anonymous": false,
      "inputs": [
        {
          "indexed": true,
          "internalType": "uint256",
          "name": "id",
          "type": "uint256"
        },
        {
          "indexed": false,
          "internalType": "string",
          "name": "title",
          "type": "string"
        },
        {
          "indexed": false,
          "internalType": "string[]",
          "name": "candidates",
          "type": "string[]"
        },
        {
          "indexed": false,
          "internalType": "bool",
          "name": "revealDuringVoting",
          "type": "bool"
        }
      ],
      "name": "ElectionCreated",
      "type": "event"
    },
    {
      "anonymous": false,
      "inputs": [
        {
          "indexed": true,
          "internalType": "uint256",
          "name": "id",
          "type": "uint256"
        }
      ],
      "name": "ElectionEnded",
      "type": "event"
    },
    {
      "anonymous": false,
      "inputs": [
        {
          "indexed": true,
          "internalType": "uint256",
          "name": "id",
          "type": "uint256"
        }
      ],
      "name": "ElectionPaused",
      "type": "event"
    },
    {
      "anonymous": false,
      "inputs": [
        {
          "indexed": true,
          "internalType": "uint256",
          "name": "id",
          "type": "uint256"
        },
        {
          "indexed": false,
          "internalType": "uint256",
          "name": "start",
          "type": "uint256"
        },
        {
          "indexed": false,
          "internalType": "uint256",
          "name": "end",
          "type": "uint256"
        }
      ],
      "name": "ElectionStarted",
      "type": "event"
    },
    {
      "anonymous": false,
      "inputs": [
        {
          "indexed": true,
          "internalType": "uint256",
          "name": "id",
          "type": "uint256"
        },
        {
          "indexed": true,
          "internalType": "address",
          "name": "voter",
          "type": "address"
        },
        {
          "indexed": false,
          "internalType": "uint256",
          "name": "candidate",
          "type": "uint256"
        }
      ],
      "name": "VoteCast",
      "type": "event"
    },
    {
      "inputs": [],
      "name": "admin",
      "outputs": [
        {
          "internalType": "address",
          "name": "",
          "type": "address"
        }
      ],
      "stateMutability": "view",
      "type": "function"
    },
    {
      "inputs": [
        {
          "internalType": "string",
          "name": "title",
          "type": "string"
        },
        {
          "internalType": "string[]",
          "name": "candidateNames",
          "type": "string[]"
        },
        {
          "internalType": "bool",
          "name": "revealDuringVoting",
          "type": "bool"
        }
      ],
      "name": "createElection",
      "outputs": [
        {
          "internalType": "uint256",
          "name": "id",
          "type": "uint256"
        }
      ],
      "stateMutability": "nonpayable",
      "type": "function"
    },
    {
      "inputs": [],
      "name": "electionCount",
      "outputs": [
        {
          "internalType": "uint256",
          "name": "",
          "type": "uint256"
        }
      ],
      "stateMutability": "view",
      "type": "function"
    },
    {
      "inputs": [
        {
          "internalType": "uint256",
          "name": "id",
          "type": "uint256"
        }
      ],
      "name": "endElection",
      "outputs": [],
      "stateMutability": "nonpayable",
      "type": "function"
    },
    {
      "inputs": [
        {
          "internalType": "uint256",
          "name": "id",
          "type": "uint256"
        }
      ],
      "name": "getCandidates",
      "outputs": [
        {
          "internalType": "string[]",
          "name": "",
          "type": "string[]"
        }
      ],
      "stateMutability": "view",
      "type": "function"
    },
    {
      "inputs": [
        {
          "internalType": "uint256",
          "name": "id",
          "type": "uint256"
        }
      ],
      "name": "getElectionMeta",
      "outputs": [
        {
          "internalType": "string",
          "name": "title",
          "type": "string"
        },
        {
          "internalType": "uint64",
          "name": "start",
          "type": "uint64"
        },
        {
          "internalType": "uint64",
          "name": "end",
          "type": "uint64"
        },
        {
          "internalType": "bool",
          "name": "active",
          "type": "bool"
        },
        {
          "internalType": "bool",
          "name": "ended",
          "type": "bool"
        },
        {
          "internalType": "bool",
          "name": "revealDuringVoting",
          "type": "bool"
        }
      ],
      "stateMutability": "view",
      "type": "function"
    },
    {
      "inputs": [
        {
          "internalType": "uint256",
          "name": "id",
          "type": "uint256"
        }
      ],
      "name": "getTallies",
      "outputs": [
        {
          "internalType": "uint256[]",
          "name": "",
          "type": "uint256[]"
        }
      ],
      "stateMutability": "view",
      "type": "function"
    },
    {
      "inputs": [
        {
          "internalType": "uint256",
          "name": "id",
          "type": "uint256"
        }
      ],
      "name": "getWinner",
      "outputs": [
        {
          "internalType": "uint256",
          "name": "winnerId",
          "type": "uint256"
        }
      ],
      "stateMutability": "view",
      "type": "function"
    },
    {
      "inputs": [
        {
          "internalType": "uint256",
          "name": "id",
          "type": "uint256"
        },
        {
          "internalType": "address",
          "name": "voter",
          "type": "address"
        }
      ],
      "name": "hasVoted",
      "outputs": [
        {
          "internalType": "bool",
          "name": "",
          "type": "bool"
        }
      ],
      "stateMutability": "view",
      "type": "function"
    },
    {
      "inputs": [
        {
          "internalType": "uint256",
          "name": "id",
          "type": "uint256"
        }
      ],
      "name": "pauseElection",
      "outputs": [],
      "stateMutability": "nonpayable",
      "type": "function"
    },
    {
      "inputs": [
        {
          "internalType": "uint256",
          "name": "id",
          "type": "uint256"
        },
        {
          "internalType": "uint64",
          "name": "start",
          "type": "uint64"
        },
        {
          "internalType": "uint64",
          "name": "end",
          "type": "uint64"
        }
      ],
      "name": "startElection",
      "outputs": [],
      "stateMutability": "nonpayable",
      "type": "function"
    },
    {
      "inputs": [
        {
          "internalType": "uint256",
          "name": "id",
          "type": "uint256"
        },
        {
          "internalType": "uint256",
          "name": "candidateId",
          "type": "uint256"
        }
      ],
      "name": "vote",
      "outputs": [],
      "stateMutability": "nonpayable",
      "type": "function"
    }
  ],
  "bytecode": "0x60806040523480156200001157600080fd5b506040516200216a3803806200216a833981810160405281019062000037919062000125565b600073ffffffffffffffffffffffffffffffffffffffff168173ffffffffffffffffffffffffffffffffffffffff161462000073578062000075565b335b6000806101000a81548173ffffffffffffffffffffffffffffffffffffffff021916908373ffffffffffffffffffffffffffffffffffffffff1602179055505062000157565b600080fd5b600073ffffffffffffffffffffffffffffffffffffffff82169050919050565b6000620000ed82620000c0565b9050919050565b620000ff81620000e0565b81146200010b57600080fd5b50565b6000815190506200011f81620000f4565b92915050565b6000602082840312156200013e576200013d620000bb565b5b60006200014e848285016200010e565b91505092915050565b61200380620001676000396000f3fe608060405234801561001057600080fd5b50600436106100b45760003560e01c8063997d283011610071578063997d2830146101c55780639c98bcbb146101e3578063b384abef146101ff578063ed950a5a1461021b578063ed9cccb414610250578063f851a4401461026c576100b4565b80632e4ecae1146100b957806339f69bcf146100d55780633e39a7a5146101055780634129b2c91461013557806343859632146101655780636ce0a9e014610195575b600080fd5b6100d360048036038101906100ce919061128f565b61028a565b005b6100ef60048036038101906100ea9190611520565b6103ab565b6040516100fc91906115ba565b60405180910390f35b61011f600480360381019061011a919061128f565b610595565b60405161012c9190611716565b60405180910390f35b61014f600480360381019061014a919061128f565b6106c1565b60405161015c91906115ba565b60405180910390f35b61017f600480360381019061017a9190611796565b610798565b60405161018c91906117e5565b60405180910390f35b6101af60048036038101906101aa919061128f565b610840565b6040516101bc91906118be565b60405180910390f35b6101cd61097d565b6040516101da91906115ba565b60405180910390f35b6101fd60048036038101906101f8919061128f565b610983565b005b610219600480360381019061021491906118e0565b610ac7565b005b6102356004803603810190610230919061128f565b610d97565b6040516102479695949392919061198d565b60405180910390f35b61026a60048036038101906102659190611a21565b610f03565b005b6102746110fa565b6040516102819190611a83565b60405180910390f35b60008054906101000a900473ffffffffffffffffffffffffffffffffffffffff1673ffffffffffffffffffffffffffffffffffffffff163373ffffffffffffffffffffffffffffffffffffffff161461030f576040517f4755657900000000000000000000000000000000000000000000000000000000815260040160405180910390fd5b80600154811061034b576040517fcd9f14e100000000000000000000000000000000000000000000000000000000815260040160405180910390fd5b60006002600084815260200190815260200160002060030160106101000a81548160ff021916908315150217905550817f4863718bd88bf735b6d3ec0c730a749b6f6d42bcdee818ed570aa2656411388160405160405180910390a25050565b60008060009054906101000a900473ffffffffffffffffffffffffffffffffffffffff1673ffffffffffffffffffffffffffffffffffffffff163373ffffffffffffffffffffffffffffffffffffffff1614610433576040517f4755657900000000000000000000000000000000000000000000000000000000815260040160405180910390fd5b600283511015610478576040517f08c379a000000000000000000000000000000000000000000000000000000000815260040161046f90611aea565b60405180910390fd5b6001600081548092919061048b90611b39565b9190505590506000600260008381526020019081526020016000209050848160000190816104b99190611d8d565b50838160010190805190602001906104d292919061111e565b50835167ffffffffffffffff8111156104ee576104ed6112d7565b5b60405190808252806020026020018201604052801561051c5781602001602082028036833780820191505090505b50816002019080519060200190610534929190611177565b50828160030160126101000a81548160ff021916908315150217905550817ffa6704555aa20cf47157175dc0332c4099c4006eb8708e2458b372718e10289f86868660405161058593929190611e5f565b60405180910390a2509392505050565b60608160015481106105d3576040517fcd9f14e100000000000000000000000000000000000000000000000000000000815260040160405180910390fd5b60026000848152602001908152602001600020600101805480602002602001604051908101604052809291908181526020016000905b828210156106b557838290600052602060002001805461062890611bb0565b80601f016020809104026020016040519081016040528092919081815260200182805461065490611bb0565b80156106a15780601f10610676576101008083540402835291602001916106a1565b820191906000526020600020905b81548152906001019060200180831161068457829003601f168201915b505050505081526020019060010190610609565b50505050915050919050565b60008160015481106106ff576040517fcd9f14e100000000000000000000000000000000000000000000000000000000815260040160405180910390fd5b6000600260008581526020019081526020016000209050600080935060005b826002018054905081101561078f578183600201828154811061074457610743611ea4565b5b9060005260206000200154111561077c5782600201818154811061076b5761076a611ea4565b5b906000526020600020015491508094505b808061078790611b39565b91505061071e565b50505050919050565b60008260015481106107d6576040517fcd9f14e100000000000000000000000000000000000000000000000000000000815260040160405180910390fd5b6002600085815260200190815260200160002060040160008473ffffffffffffffffffffffffffffffffffffffff1673ffffffffffffffffffffffffffffffffffffffff16815260200190815260200160002060009054906101000a900460ff1691505092915050565b606081600154811061087e576040517fcd9f14e100000000000000000000000000000000000000000000000000000000815260040160405180910390fd5b60006002600085815260200190815260200160002090508060030160129054906101000a900460ff161580156108c357508060030160119054906101000a900460ff16155b1561092057806001018054905067ffffffffffffffff8111156108e9576108e86112d7565b5b6040519080825280602002602001820160405280156109175781602001602082028036833780820191505090505b50925050610977565b8060020180548060200260200160405190810160405280929190818152602001828054801561096e57602002820191906000526020600020905b81548152602001906001019080831161095a575b50505050509250505b50919050565b60015481565b60008054906101000a900473ffffffffffffffffffffffffffffffffffffffff1673ffffffffffffffffffffffffffffffffffffffff163373ffffffffffffffffffffffffffffffffffffffff1614610a08576040517f4755657900000000000000000000000000000000000000000000000000000000815260040160405180910390fd5b806001548110610a44576040517fcd9f14e100000000000000000000000000000000000000000000000000000000815260040160405180910390fd5b600060026000848152602001908152602001600020905060008160030160106101000a81548160ff02191690831515021790555060018160030160116101000a81548160ff021916908315150217905550827f562cd572b2ba3b666cd989fc4ca98419ec81e75f04528df9d9d76fdb7807ee7160405160405180910390a2505050565b816001548110610b03576040517fcd9f14e100000000000000000000000000000000000000000000000000000000815260040160405180910390fd5b60006002600085815260200190815260200160002090508060030160109054906101000a900460ff16610b62576040517f80cb55e200000000000000000000000000000000000000000000000000000000815260040160405180910390fd5b8060030160009054906101000a900467ffffffffffffffff1667ffffffffffffffff16421080610bb357508060030160089054906101000a900467ffffffffffffffff1667ffffffffffffffff1642115b15610bea576040517f66b6cb4a00000000000000000000000000000000000000000000000000000000815260040160405180910390fd5b80600101805490508310610c2a576040517fe66ea08f00000000000000000000000000000000000000000000000000000000815260040160405180910390fd5b8060040160003373ffffffffffffffffffffffffffffffffffffffff1673ffffffffffffffffffffffffffffffffffffffff16815260200190815260200160002060009054906101000a900460ff1615610cb0576040517f7c9a1cf900000000000000000000000000000000000000000000000000000000815260040160405180910390fd5b6001816002018481548110610cc857610cc7611ea4565b5b906000526020600020016000828254610ce19190611ed3565b9250508190555060018160040160003373ffffffffffffffffffffffffffffffffffffffff1673ffffffffffffffffffffffffffffffffffffffff16815260200190815260200160002060006101000a81548160ff0219169083151502179055503373ffffffffffffffffffffffffffffffffffffffff16847f2acce567deca3aabf56327adbb4524bd5318936eaefa69e3a5208ffda0cfec0985604051610d8991906115ba565b60405180910390a350505050565b60606000806000806000866001548110610ddd576040517fcd9f14e100000000000000000000000000000000000000000000000000000000815260040160405180910390fd5b6000600260008a81526020019081526020016000209050806000018160030160009054906101000a900467ffffffffffffffff168260030160089054906101000a900467ffffffffffffffff168360030160109054906101000a900460ff168460030160119054906101000a900460ff168560030160129054906101000a900460ff16858054610e6c90611bb0565b80601f0160208091040260200160405190810160405280929190818152602001828054610e9890611bb0565b8015610ee55780601f10610eba57610100808354040283529160200191610ee5565b820191906000526020600020905b815481529060010190602001808311610ec857829003601f168201915b50505050509550975097509750975097509750505091939550919395565b60008054906101000a900473ffffffffffffffffffffffffffffffffffffffff1673ffffffffffffffffffffffffffffffffffffffff163373ffffffffffffffffffffffffffffffffffffffff1614610f88576040517f4755657900000000000000000000000000000000000000000000000000000000815260040160405180910390fd5b826001548110610fc4576040517fcd9f14e100000000000000000000000000000000000000000000000000000000815260040160405180910390fd5b8267ffffffffffffffff168267ffffffffffffffff16118015610ff05750428267ffffffffffffffff16115b61102f576040517f08c379a000000000000000000000000000000000000000000000000000000000815260040161102690611f53565b60405180910390fd5b6000600260008681526020019081526020016000209050838160030160006101000a81548167ffffffffffffffff021916908367ffffffffffffffff160217905550828160030160086101000a81548167ffffffffffffffff021916908367ffffffffffffffff16021790555060018160030160106101000a81548160ff021916908315150217905550847f05c86f625f5abd1385c78f66fa5cae221087d7ef4e0a8b37efdfd0592c85a75985856040516110eb929190611fa4565b60405180910390a25050505050565b60008054906101000a900473ffffffffffffffffffffffffffffffffffffffff1681565b828054828255906000526020600020908101928215611166579160200282015b828111156111655782518290816111559190611d8d565b509160200191906001019061113e565b5b50905061117391906111c4565b5090565b8280548282559060005260206000209081019282156111b3579160200282015b828111156111b2578251825591602001919060010190611197565b5b5090506111c091906111e8565b5090565b5b808211156111e457600081816111db9190611205565b506001016111c5565b5090565b5b808211156112015760008160009055506001016111e9565b5090565b50805461121190611bb0565b6000825580601f106112235750611242565b601f01602090049060005260206000209081019061124191906111e8565b5b50565b6000604051905090565b600080fd5b600080fd5b6000819050919050565b61126c81611259565b811461127757600080fd5b50565b60008135905061128981611263565b92915050565b6000602082840312156112a5576112a461124f565b5b60006112b38482850161127a565b91505092915050565b600080fd5b600080fd5b6000601f19601f8301169050919050565b7f4e487b7100000000000000000000000000000000000000000000000000000000600052604160045260246000fd5b61130f826112c6565b810181811067ffffffffffffffff8211171561132e5761132d6112d7565b5b80604052505050565b6000611341611245565b905061134d8282611306565b919050565b600067ffffffffffffffff82111561136d5761136c6112d7565b5b611376826112c6565b9050602081019050919050565b82818337600083830152505050565b60006113a56113a084611352565b611337565b9050828152602081018484840111156113c1576113c06112c1565b5b6113cc848285611383565b509392505050565b600082601f8301126113e9576113e86112bc565b5b81356113f9848260208601611392565b91505092915050565b600067ffffffffffffffff82111561141d5761141c6112d7565b5b602082029050602081019050919050565b600080fd5b600061144661144184611402565b611337565b905080838252602082019050602084028301858111156114695761146861142e565b5b835b818110156114b057803567ffffffffffffffff81111561148e5761148d6112bc565b5b80860161149b89826113d4565b8552602085019450505060208101905061146b565b5050509392505050565b600082601f8301126114cf576114ce6112bc565b5b81356114df848260208601611433565b91505092915050565b60008115159050919050565b6114fd816114e8565b811461150857600080fd5b50565b60008135905061151a816114f4565b92915050565b6000806000606084860312156115395761153861124f565b5b600084013567ffffffffffffffff81111561155757611556611254565b5b611563868287016113d4565b935050602084013567ffffffffffffffff81111561158457611583611254565b5b611590868287016114ba565b92505060406115a18682870161150b565b9150509250925092565b6115b481611259565b82525050565b60006020820190506115cf60008301846115ab565b92915050565b600081519050919050565b600082825260208201905092915050565b6000819050602082019050919050565b600081519050919050565b600082825260208201905092915050565b60005b8381101561163b578082015181840152602081019050611620565b60008484015250505050565b600061165282611601565b61165c818561160c565b935061166c81856020860161161d565b611675816112c6565b840191505092915050565b600061168c8383611647565b905092915050565b6000602082019050919050565b60006116ac826115d5565b6116b681856115e0565b9350836020820285016116c8856115f1565b8060005b8581101561170457848403895281516116e58582611680565b94506116f083611694565b925060208a019950506001810190506116cc565b50829750879550505050505092915050565b6000602082019050818103600083015261173081846116a1565b905092915050565b600073ffffffffffffffffffffffffffffffffffffffff82169050919050565b600061176382611738565b9050919050565b61177381611758565b811461177e57600080fd5b50565b6000813590506117908161176a565b92915050565b600080604083850312156117ad576117ac61124f565b5b60006117bb8582860161127a565b92505060206117cc85828601611781565b9150509250929050565b6117df816114e8565b82525050565b60006020820190506117fa60008301846117d6565b92915050565b600081519050919050565b600082825260208201905092915050565b6000819050602082019050919050565b61183581611259565b82525050565b6000611847838361182c565b60208301905092915050565b6000602082019050919050565b600061186b82611800565b611875818561180b565b93506118808361181c565b8060005b838110156118b1578151611898888261183b565b97506118a383611853565b925050600181019050611884565b5085935050505092915050565b600060208201905081810360008301526118d88184611860565b905092915050565b600080604083850312156118f7576118f661124f565b5b60006119058582860161127a565b92505060206119168582860161127a565b9150509250929050565b600082825260208201905092915050565b600061193c82611601565b6119468185611920565b935061195681856020860161161d565b61195f816112c6565b840191505092915050565b600067ffffffffffffffff82169050919050565b6119878161196a565b82525050565b600060c08201905081810360008301526119a78189611931565b90506119b6602083018861197e565b6119c3604083018761197e565b6119d060608301866117d6565b6119dd60808301856117d6565b6119ea60a08301846117d6565b979650505050505050565b6119fe8161196a565b8114611a0957600080fd5b50565b600081359050611a1b816119f5565b92915050565b600080600060608486031215611a3a57611a3961124f565b5b6000611a488682870161127a565b9350506020611a5986828701611a0c565b9250506040611a6a86828701611a0c565b9150509250925092565b611a7d81611758565b82525050565b6000602082019050611a986000830184611a74565b92915050565b7f4e656564203e3d20322063616e64696461746573000000000000000000000000600082015250565b6000611ad4601483611920565b9150611adf82611a9e565b602082019050919050565b60006020820190508181036000830152611b0381611ac7565b9050919050565b7f4e487b7100000000000000000000000000000000000000000000000000000000600052601160045260246000fd5b6000611b4482611259565b91507fffffffffffffffffffffffffffffffffffffffffffffffffffffffffffffffff8203611b7657611b75611b0a565b5b600182019050919050565b7f4e487b7100000000000000000000000000000000000000000000000000000000600052602260045260246000fd5b60006002820490506001821680611bc857607f821691505b602082108103611bdb57611bda611b81565b5b50919050565b60008190508160005260206000209050919050565b60006020601f8301049050919050565b600082821b905092915050565b600060088302611c437fffffffffffffffffffffffffffffffffffffffffffffffffffffffffffffffff82611c06565b611c4d8683611c06565b95508019841693508086168417925050509392505050565b6000819050919050565b6000611c8a611c85611c8084611259565b611c65565b611259565b9050919050565b6000819050919050565b611ca483611c6f565b611cb8611cb082611c91565b848454611c13565b825550505050565b600090565b611ccd611cc0565b611cd8818484611c9b565b505050565b5b81811015611cfc57611cf1600082611cc5565b600181019050611cde565b5050565b601f821115611d4157611d1281611be1565b611d1b84611bf6565b81016020851015611d2a578190505b611d3e611d3685611bf6565b830182611cdd565b50505b505050565b600082821c905092915050565b6000611d6460001984600802611d46565b1980831691505092915050565b6000611d7d8383611d53565b9150826002028217905092915050565b611d9682611601565b67ffffffffffffffff811115611daf57611dae6112d7565b5b611db98254611bb0565b611dc4828285611d00565b600060209050601f831160018114611df75760008415611de5578287015190505b611def8582611d71565b865550611e57565b601f198416611e0586611be1565b60005b82811015611e2d57848901518255600182019150602085019450602081019050611e08565b86831015611e4a5784890151611e46601f891682611d53565b8355505b6001600288020188555050505b505050505050565b60006060820190508181036000830152611e798186611931565b90508181036020830152611e8d81856116a1565b9050611e9c60408301846117d6565b949350505050565b7f4e487b7100000000000000000000000000000000000000000000000000000000600052603260045260246000fd5b6000611ede82611259565b9150611ee983611259565b9250828201905080821115611f0157611f00611b0a565b5b92915050565b7f4261642077696e646f7700000000000000000000000000000000000000000000600082015250565b6000611f3d600a83611920565b9150611f4882611f07565b602082019050919050565b60006020820190508181036000830152611f6c81611f30565b9050919050565b6000611f8e611f89611f848461196a565b611c65565b611259565b9050919050565b611f9e81611f73565b82525050565b6000604082019050611fb96000830185611f95565b611fc66020830184611f95565b939250505056fea264697066735822122088f883aa361ae105d9a2fa195aabcd875bcfe21453d79543d828f2ae57107ecb64736f6c63430008140033",
  "linkReferences": {},
  "deployedLinkReferences": {}
}