{
  "_format": "hh-sol-artifact-1",
  "contractName": "Voting",
  "sourceName": "contracts/votingSystem.sol",
  "abi": [
    {
      "inputs": [
        {
          "internalType": "string[]",
          "name": "candidateNames",
          "type": "string[]"
        }
      ],
      "stateMutability": "nonpayable",
      "type": "constructor"
    },
    {
      "inputs": [
        {
          "internalType": "uint256",
          "name": "",
          "type": "uint256"
        }
      ],
      "name": "candidates",
      "outputs": [
        {
          "internalType": "string",
          "name": "",
          "type": "string"
        }
      ],
      "stateMutability": "view",
      "type": "function"
    },
    {
      "inputs": [],
      "name": "getAllCandidates",
      "outputs": [
        {
          "internalType": "string[]",
          "name": "",
          "type": "string[]"
        }
      ],
      "stateMutability": "view",
      "type": "function"
    },
    {
      "inputs": [
        {
          "internalType": "address",
          "name": "",
          "type": "address"
        }
      ],
      "name": "hasVoted",
      "outputs": [
        {
          "internalType": "bool",
          "name": "",
          "type": "bool"
        }
      ],
      "stateMutability": "view",
      "type": "function"
    },
    {
      "inputs": [
        {
          "internalType": "string",
          "name": "candidate",
          "type": "string"
        }
      ],
      "name": "totalVotesFor",
      "outputs": [
        {
          "internalType": "uint256",
          "name": "",
          "type": "uint256"
        }
      ],
      "stateMutability": "view",
      "type": "function"
    },
    {
      "inputs": [
        {
          "internalType": "string",
          "name": "candidate",
          "type": "string"
        }
      ],
      "name": "validCandidate",
      "outputs": [
        {
          "internalType": "bool",
          "name": "",
          "type": "bool"
        }
      ],
      "stateMutability": "view",
      "type": "function"
    },
    {
      "inputs": [
        {
          "internalType": "string",
          "name": "candidate",
          "type": "string"
        }
      ],
      "name": "vote",
      "outputs": [],
      "stateMutability": "nonpayable",
      "type": "function"
    },
    {
      "inputs": [
        {
          "internalType": "string",
          "name": "",
          "type": "string"
        }
      ],
      "name": "votesReceived",
      "outputs": [
        {
          "internalType": "uint256",
          "name": "",
          "type": "uint256"
        }
      ],
      "stateMutability": "view",
      "type": "function"
    }
  ],
  "bytecode": "0x60806040523480156200001157600080fd5b506040516200182c3803806200182c83398181016040528101906200003791906200040e565b6200005367aee25d46b2eac85a60c01b6200008f60201b60201c565b6200006f6749a6a04cebec5d8560c01b6200008f60201b60201c565b80600090805190602001906200008792919062000092565b505062000791565b50565b828054828255906000526020600020908101928215620000df579160200282015b82811115620000de578251829081620000cd9190620006aa565b5091602001919060010190620000b3565b5b509050620000ee9190620000f2565b5090565b5b808211156200011657600081816200010c91906200011a565b50600101620000f3565b5090565b508054620001289062000499565b6000825580601f106200013c57506200015d565b601f0160209004906000526020600020908101906200015c919062000160565b5b50565b5b808211156200017b57600081600090555060010162000161565b5090565b6000604051905090565b600080fd5b600080fd5b600080fd5b6000601f19601f8301169050919050565b7f4e487b7100000000000000000000000000000000000000000000000000000000600052604160045260246000fd5b620001e38262000198565b810181811067ffffffffffffffff82111715620002055762000204620001a9565b5b80604052505050565b60006200021a6200017f565b9050620002288282620001d8565b919050565b600067ffffffffffffffff8211156200024b576200024a620001a9565b5b602082029050602081019050919050565b600080fd5b600080fd5b600067ffffffffffffffff821115620002845762000283620001a9565b5b6200028f8262000198565b9050602081019050919050565b60005b83811015620002bc5780820151818401526020810190506200029f565b60008484015250505050565b6000620002df620002d98462000266565b6200020e565b905082815260208101848484011115620002fe57620002fd62000261565b5b6200030b8482856200029c565b509392505050565b600082601f8301126200032b576200032a62000193565b5b81516200033d848260208601620002c8565b91505092915050565b60006200035d62000357846200022d565b6200020e565b905080838252602082019050602084028301858111156200038357620003826200025c565b5b835b81811015620003d157805167ffffffffffffffff811115620003ac57620003ab62000193565b5b808601620003bb898262000313565b8552602085019450505060208101905062000385565b5050509392505050565b600082601f830112620003f357620003f262000193565b5b81516200040584826020860162000346565b91505092915050565b60006020828403121562000427576200042662000189565b5b600082015167ffffffffffffffff8111156200044857620004476200018e565b5b6200045684828501620003db565b91505092915050565b600081519050919050565b7f4e487b7100000000000000000000000000000000000000000000000000000000600052602260045260246000fd5b60006002820490506001821680620004b257607f821691505b602082108103620004c857620004c76200046a565b5b50919050565b60008190508160005260206000209050919050565b60006020601f8301049050919050565b600082821b905092915050565b600060088302620005327fffffffffffffffffffffffffffffffffffffffffffffffffffffffffffffffff82620004f3565b6200053e8683620004f3565b95508019841693508086168417925050509392505050565b6000819050919050565b6000819050919050565b60006200058b620005856200057f8462000556565b62000560565b62000556565b9050919050565b6000819050919050565b620005a7836200056a565b620005bf620005b68262000592565b84845462000500565b825550505050565b600090565b620005d6620005c7565b620005e38184846200059c565b505050565b5b818110156200060b57620005ff600082620005cc565b600181019050620005e9565b5050565b601f8211156200065a576200062481620004ce565b6200062f84620004e3565b810160208510156200063f578190505b620006576200064e85620004e3565b830182620005e8565b50505b505050565b600082821c905092915050565b60006200067f600019846008026200065f565b1980831691505092915050565b60006200069a83836200066c565b9150826002028217905092915050565b620006b5826200045f565b67ffffffffffffffff811115620006d157620006d0620001a9565b5b620006dd825462000499565b620006ea8282856200060f565b600060209050601f8311600181146200072257600084156200070d578287015190505b6200071985826200068c565b86555062000789565b601f1984166200073286620004ce565b60005b828110156200075c5784890151825560018201915060208501945060208101905062000735565b868310156200077c578489015162000778601f8916826200066c565b8355505b6001600288020188555050505b505050505050565b61108b80620007a16000396000f3fe608060405234801561001057600080fd5b506004361061007d5760003560e01c80634a3bf3771161005b5780634a3bf37714610100578063538c91b2146101305780638d4b44d914610160578063fc36e15b146101905761007d565b806309eef43e146100825780632e6997fe146100b25780633477ee2e146100d0575b600080fd5b61009c600480360381019061009791906108f3565b6101ac565b6040516100a9919061093b565b60405180910390f35b6100ba6101cc565b6040516100c79190610aa8565b60405180910390f35b6100ea60048036038101906100e59190610b00565b6102e1565b6040516100f79190610b77565b60405180910390f35b61011a60048036038101906101159190610cce565b61038d565b6040516101279190610d26565b60405180910390f35b61014a60048036038101906101459190610cce565b610489565b604051610157919061093b565b60405180910390f35b61017a60048036038101906101759190610cce565b61060f565b6040516101879190610d26565b60405180910390f35b6101aa60048036038101906101a59190610cce565b61063d565b005b60026020528060005260406000206000915054906101000a900460ff1681565b60606101e267d4a979de75bbe89160c01b61087e565b6101f6675d63046595d5c1d560c01b61087e565b61020a670330359032d5388b60c01b61087e565b6000805480602002602001604051908101604052809291908181526020016000905b828210156102d857838290600052602060002001805461024b90610d70565b80601f016020809104026020016040519081016040528092919081815260200182805461027790610d70565b80156102c45780601f10610299576101008083540402835291602001916102c4565b820191906000526020600020905b8154815290600101906020018083116102a757829003601f168201915b50505050508152602001906001019061022c565b50505050905090565b600081815481106102f157600080fd5b90600052602060002001600091509050805461030c90610d70565b80601f016020809104026020016040519081016040528092919081815260200182805461033890610d70565b80156103855780601f1061035a57610100808354040283529160200191610385565b820191906000526020600020905b81548152906001019060200180831161036857829003601f168201915b505050505081565b60006103a3677efc458985be5c9360c01b61087e565b6103b7674113edd4f517856e60c01b61087e565b6103cb6790988a92776c9f2660c01b61087e565b6103df679edfd8a4a95c8e2660c01b61087e565b6103e882610489565b610427576040517f08c379a000000000000000000000000000000000000000000000000000000000815260040161041e90610ded565b60405180910390fd5b61043b679e11d6159bac6e9460c01b61087e565b61044f6704a7471bc7ae64a060c01b61087e565b61046367e42ab35b155f612960c01b61087e565b6001826040516104739190610e49565b9081526020016040518091039020549050919050565b600061049f67d8fbb365069456cf60c01b61087e565b6104b3674e52e6cd21355f9760c01b61087e565b6104c767fbca0ca46dc38ed260c01b61087e565b60005b6000805490508110156105dc576104eb67d2e1a2a8894115db60c01b61087e565b6104ff676ce4a5b90e81c40b60c01b61087e565b826040516020016105109190610e49565b604051602081830303815290604052805190602001206000828154811061053a57610539610e60565b5b906000526020600020016040516020016105549190610f27565b60405160208183030381529060405280519060200120036105b557610583670b7f0cade0ce20fd60c01b61087e565b610597676791935c6e19ab8a60c01b61087e565b6105ab679b8a292f6810cbc460c01b61087e565b600191505061060a565b6105c967a09003ad481467cd60c01b61087e565b80806105d490610f6d565b9150506104ca565b506105f167fabb949a096c2a1060c01b61087e565b610605672f4e0bc26067ad8660c01b61087e565b600090505b919050565b6001818051602081018201805184825260208301602085012081835280955050505050506000915090505481565b61065167b03c165da715c53a60c01b61087e565b6106656730fba319489d894860c01b61087e565b6106796733ef973f13fc6fe660c01b61087e565b61068d67616c7931803b7ac560c01b61087e565b600260003373ffffffffffffffffffffffffffffffffffffffff1673ffffffffffffffffffffffffffffffffffffffff16815260200190815260200160002060009054906101000a900460ff161561071a576040517f08c379a000000000000000000000000000000000000000000000000000000000815260040161071190611001565b60405180910390fd5b61072e674d47ca89184cdb0860c01b61087e565b610742674b793ab46b9057e460c01b61087e565b6107566733e83a767570490460c01b61087e565b61076a6787eb7892f494c9c560c01b61087e565b61077381610489565b6107b2576040517f08c379a00000000000000000000000000000000000000000000000000000000081526004016107a990610ded565b60405180910390fd5b6107c667884eca6a3727d05360c01b61087e565b6107da6774bcd701d4c9e89a60c01b61087e565b600180826040516107eb9190610e49565b908152602001604051809103902060008282546108089190611021565b925050819055506108236749ce5661ccbec82360c01b61087e565b6001600260003373ffffffffffffffffffffffffffffffffffffffff1673ffffffffffffffffffffffffffffffffffffffff16815260200190815260200160002060006101000a81548160ff02191690831515021790555050565b50565b6000604051905090565b600080fd5b600080fd5b600073ffffffffffffffffffffffffffffffffffffffff82169050919050565b60006108c082610895565b9050919050565b6108d0816108b5565b81146108db57600080fd5b50565b6000813590506108ed816108c7565b92915050565b6000602082840312156109095761090861088b565b5b6000610917848285016108de565b91505092915050565b60008115159050919050565b61093581610920565b82525050565b6000602082019050610950600083018461092c565b92915050565b600081519050919050565b600082825260208201905092915050565b6000819050602082019050919050565b600081519050919050565b600082825260208201905092915050565b60005b838110156109bc5780820151818401526020810190506109a1565b60008484015250505050565b6000601f19601f8301169050919050565b60006109e482610982565b6109ee818561098d565b93506109fe81856020860161099e565b610a07816109c8565b840191505092915050565b6000610a1e83836109d9565b905092915050565b6000602082019050919050565b6000610a3e82610956565b610a488185610961565b935083602082028501610a5a85610972565b8060005b85811015610a965784840389528151610a778582610a12565b9450610a8283610a26565b925060208a01995050600181019050610a5e565b50829750879550505050505092915050565b60006020820190508181036000830152610ac28184610a33565b905092915050565b6000819050919050565b610add81610aca565b8114610ae857600080fd5b50565b600081359050610afa81610ad4565b92915050565b600060208284031215610b1657610b1561088b565b5b6000610b2484828501610aeb565b91505092915050565b600082825260208201905092915050565b6000610b4982610982565b610b538185610b2d565b9350610b6381856020860161099e565b610b6c816109c8565b840191505092915050565b60006020820190508181036000830152610b918184610b3e565b905092915050565b600080fd5b600080fd5b7f4e487b7100000000000000000000000000000000000000000000000000000000600052604160045260246000fd5b610bdb826109c8565b810181811067ffffffffffffffff82111715610bfa57610bf9610ba3565b5b80604052505050565b6000610c0d610881565b9050610c198282610bd2565b919050565b600067ffffffffffffffff821115610c3957610c38610ba3565b5b610c42826109c8565b9050602081019050919050565b82818337600083830152505050565b6000610c71610c6c84610c1e565b610c03565b905082815260208101848484011115610c8d57610c8c610b9e565b5b610c98848285610c4f565b509392505050565b600082601f830112610cb557610cb4610b99565b5b8135610cc5848260208601610c5e565b91505092915050565b600060208284031215610ce457610ce361088b565b5b600082013567ffffffffffffffff811115610d0257610d01610890565b5b610d0e84828501610ca0565b91505092915050565b610d2081610aca565b82525050565b6000602082019050610d3b6000830184610d17565b92915050565b7f4e487b7100000000000000000000000000000000000000000000000000000000600052602260045260246000fd5b60006002820490506001821680610d8857607f821691505b602082108103610d9b57610d9a610d41565b5b50919050565b7f496e76616c69642063616e646964617465210000000000000000000000000000600082015250565b6000610dd7601283610b2d565b9150610de282610da1565b602082019050919050565b60006020820190508181036000830152610e0681610dca565b9050919050565b600081905092915050565b6000610e2382610982565b610e2d8185610e0d565b9350610e3d81856020860161099e565b80840191505092915050565b6000610e558284610e18565b915081905092915050565b7f4e487b7100000000000000000000000000000000000000000000000000000000600052603260045260246000fd5b60008190508160005260206000209050919050565b60008154610eb181610d70565b610ebb8186610e0d565b94506001821660008114610ed65760018114610eeb57610f1e565b60ff1983168652811515820286019350610f1e565b610ef485610e8f565b60005b83811015610f1657815481890152600182019150602081019050610ef7565b838801955050505b50505092915050565b6000610f338284610ea4565b915081905092915050565b7f4e487b7100000000000000000000000000000000000000000000000000000000600052601160045260246000fd5b6000610f7882610aca565b91507fffffffffffffffffffffffffffffffffffffffffffffffffffffffffffffffff8203610faa57610fa9610f3e565b5b600182019050919050565b7f596f75206861766520616c726561647920766f74656421000000000000000000600082015250565b6000610feb601783610b2d565b9150610ff682610fb5565b602082019050919050565b6000602082019050818103600083015261101a81610fde565b9050919050565b600061102c82610aca565b915061103783610aca565b925082820190508082111561104f5761104e610f3e565b5b9291505056fea264697066735822122094e0ca7bc32cce02e2a3e9baf4dc6d3866453843fe610ca93158ac09108bc78e64736f6c63430008140033",
  "linkReferences": {},
  "deployedLinkReferences": {}
}